{
  "address": "0x82eB18DF7EE430278872e821AaEAaf754a5337F8",
  "abi": [
    {
      "inputs": [
        {
          "internalType": "address",
          "name": "_positionManager",
          "type": "address"
        },
        {
          "internalType": "address",
          "name": "_operationalTreasury",
          "type": "address"
        }
      ],
      "stateMutability": "nonpayable",
      "type": "constructor"
    },
    {
      "anonymous": false,
      "inputs": [
        {
          "indexed": true,
          "internalType": "address",
          "name": "previousOwner",
          "type": "address"
        },
        {
          "indexed": true,
          "internalType": "address",
          "name": "newOwner",
          "type": "address"
        }
      ],
      "name": "OwnershipTransferred",
      "type": "event"
    },
    {
      "anonymous": false,
      "inputs": [
        {
          "indexed": true,
          "internalType": "uint256",
          "name": "tokenId",
          "type": "uint256"
        }
      ],
      "name": "TakeProfitDeleted",
      "type": "event"
    },
    {
      "anonymous": false,
      "inputs": [
        {
          "indexed": true,
          "internalType": "uint256",
          "name": "tokenId",
          "type": "uint256"
        },
        {
          "indexed": true,
          "internalType": "address",
          "name": "user",
          "type": "address"
        }
      ],
      "name": "TakeProfitExecuted",
      "type": "event"
    },
    {
      "anonymous": false,
      "inputs": [
        {
          "indexed": true,
          "internalType": "uint256",
          "name": "tokenId",
          "type": "uint256"
        },
        {
          "indexed": true,
          "internalType": "address",
          "name": "user",
          "type": "address"
        },
        {
          "indexed": false,
          "internalType": "uint256",
          "name": "upperStopPrice",
          "type": "uint256"
        },
        {
          "indexed": false,
          "internalType": "uint256",
          "name": "lowerStopPrice",
          "type": "uint256"
        }
      ],
      "name": "TakeProfitSet",
      "type": "event"
    },
    {
      "inputs": [
        {
          "internalType": "uint256",
          "name": "tokenId",
          "type": "uint256"
        }
      ],
      "name": "checkTakeProfit",
      "outputs": [
        {
          "internalType": "bool",
          "name": "takeProfitTriggered",
          "type": "bool"
        }
      ],
      "stateMutability": "view",
      "type": "function"
    },
    {
      "inputs": [
        {
          "internalType": "uint256",
          "name": "tokenId",
          "type": "uint256"
        }
      ],
      "name": "deleteTakeProfit",
      "outputs": [],
      "stateMutability": "nonpayable",
      "type": "function"
    },
    {
      "inputs": [
        {
          "internalType": "uint256",
          "name": "tokenId",
          "type": "uint256"
        }
      ],
      "name": "executeTakeProfit",
      "outputs": [],
      "stateMutability": "nonpayable",
      "type": "function"
    },
    {
      "inputs": [
        {
          "internalType": "uint256",
          "name": "tokenId",
          "type": "uint256"
        }
      ],
      "name": "getCurrentPrice",
      "outputs": [
        {
          "internalType": "uint256",
          "name": "",
          "type": "uint256"
        }
      ],
      "stateMutability": "view",
      "type": "function"
    },
    {
      "inputs": [
        {
          "internalType": "uint256",
          "name": "tokenId",
          "type": "uint256"
        }
      ],
      "name": "getExpirationTime",
      "outputs": [
        {
          "internalType": "uint256",
          "name": "",
          "type": "uint256"
        }
      ],
      "stateMutability": "view",
      "type": "function"
    },
    {
      "inputs": [
        {
          "internalType": "uint256",
          "name": "tokenId",
          "type": "uint256"
        }
      ],
      "name": "getPayOffAmount",
      "outputs": [
        {
          "internalType": "uint256",
          "name": "",
          "type": "uint256"
        }
      ],
      "stateMutability": "view",
      "type": "function"
    },
    {
      "inputs": [],
      "name": "globalTimeToExecution",
      "outputs": [
        {
          "internalType": "uint256",
          "name": "",
          "type": "uint256"
        }
      ],
      "stateMutability": "view",
      "type": "function"
    },
    {
      "inputs": [
        {
          "internalType": "uint256",
          "name": "tokenId",
          "type": "uint256"
        }
      ],
      "name": "isOptionActive",
      "outputs": [
        {
          "internalType": "bool",
          "name": "",
          "type": "bool"
        }
      ],
      "stateMutability": "view",
      "type": "function"
    },
    {
      "inputs": [],
      "name": "operationalTreasury",
      "outputs": [
        {
          "internalType": "contract IOperationalTreasury",
          "name": "",
          "type": "address"
        }
      ],
      "stateMutability": "view",
      "type": "function"
    },
    {
      "inputs": [],
      "name": "owner",
      "outputs": [
        {
          "internalType": "address",
          "name": "",
          "type": "address"
        }
      ],
      "stateMutability": "view",
      "type": "function"
    },
    {
      "inputs": [],
      "name": "positionManager",
      "outputs": [
        {
          "internalType": "contract IPositionsManager",
          "name": "",
          "type": "address"
        }
      ],
      "stateMutability": "view",
      "type": "function"
    },
    {
      "inputs": [],
      "name": "renounceOwnership",
      "outputs": [],
      "stateMutability": "nonpayable",
      "type": "function"
    },
    {
      "inputs": [
        {
          "internalType": "uint256",
          "name": "newGlobalTimeToExecution",
          "type": "uint256"
        }
      ],
      "name": "setGlobalTimeToExecution",
      "outputs": [],
      "stateMutability": "nonpayable",
      "type": "function"
    },
    {
      "inputs": [
        {
          "internalType": "uint256",
          "name": "tokenId",
          "type": "uint256"
        },
        {
          "components": [
            {
              "internalType": "uint256",
              "name": "upperStopPrice",
              "type": "uint256"
            },
            {
              "internalType": "uint256",
              "name": "lowerStopPrice",
              "type": "uint256"
            }
          ],
          "internalType": "struct ITakeProfit.TakeInfo",
          "name": "takeProfitParams",
          "type": "tuple"
        }
      ],
      "name": "setTakeProfit",
      "outputs": [],
      "stateMutability": "nonpayable",
      "type": "function"
    },
    {
      "inputs": [
        {
          "internalType": "uint256",
          "name": "",
          "type": "uint256"
        }
      ],
      "name": "tokenIdToTakeInfo",
      "outputs": [
        {
          "internalType": "uint256",
          "name": "upperStopPrice",
          "type": "uint256"
        },
        {
          "internalType": "uint256",
          "name": "lowerStopPrice",
          "type": "uint256"
        }
      ],
      "stateMutability": "view",
      "type": "function"
    },
    {
      "inputs": [
        {
          "internalType": "address",
          "name": "newOwner",
          "type": "address"
        }
      ],
      "name": "transferOwnership",
      "outputs": [],
      "stateMutability": "nonpayable",
      "type": "function"
    }
  ],
  "transactionHash": "0x5f8ade84147c1670d64a14ff5b422d27bf206f2f37c0497485ac1d2aeccba6f3",
  "args": [
    "0x5Fe380D68fEe022d8acd42dc4D36FbfB249a76d5",
    "0xec096ea6eB9aa5ea689b0CF00882366E92377371"
  ],
  "numDeployments": 1,
  "solcInputHash": "0be94695067f2f67376620a82ee9f97f",
  "bytecode": "0x60806040526107086003553480156200001757600080fd5b5060405162001eaf38038062001eaf83398181016040528101906200003d9190620001ca565b6200005d62000051620000e760201b60201c565b620000ef60201b60201c565b81600160006101000a81548173ffffffffffffffffffffffffffffffffffffffff021916908373ffffffffffffffffffffffffffffffffffffffff16021790555080600260006101000a81548173ffffffffffffffffffffffffffffffffffffffff021916908373ffffffffffffffffffffffffffffffffffffffff160217905550505062000259565b600033905090565b60008060009054906101000a900473ffffffffffffffffffffffffffffffffffffffff169050816000806101000a81548173ffffffffffffffffffffffffffffffffffffffff021916908373ffffffffffffffffffffffffffffffffffffffff1602179055508173ffffffffffffffffffffffffffffffffffffffff168173ffffffffffffffffffffffffffffffffffffffff167f8be0079c531659141344cd1fd0a4f28419497f9722a3daafe3b4186f6b6457e060405160405180910390a35050565b600081519050620001c4816200023f565b92915050565b60008060408385031215620001de57600080fd5b6000620001ee85828601620001b3565b92505060206200020185828601620001b3565b9150509250929050565b600062000218826200021f565b9050919050565b600073ffffffffffffffffffffffffffffffffffffffff82169050919050565b6200024a816200020b565b81146200025657600080fd5b50565b611c4680620002696000396000f3fe608060405234801561001057600080fd5b50600436106101005760003560e01c80638da5cb5b11610097578063d283075111610066578063d2830751146102ae578063d66aafa6146102ca578063f162a5df146102e8578063f2fde38b1461031857610100565b80638da5cb5b14610214578063a0982e2c14610232578063c55d0f5614610262578063c5ca04231461029257610100565b806352e80c64116100d357806352e80c64146101a0578063715018a6146101bc578063791b98bc146101c6578063858684b1146101e457610100565b806312d85c30146101055780631f22194614610135578063280d8c88146101515780633323d8451461016f575b600080fd5b61011f600480360381019061011a9190611482565b610334565b60405161012c9190611979565b60405180910390f35b61014f600480360381019061014a9190611482565b610479565b005b61015961067c565b6040516101669190611979565b60405180910390f35b61018960048036038101906101849190611482565b610682565b6040516101979291906119bd565b60405180910390f35b6101ba60048036038101906101b59190611482565b6106a6565b005b6101c461089a565b005b6101ce6108ae565b6040516101db919061187e565b60405180910390f35b6101fe60048036038101906101f99190611482565b6108d4565b60405161020b9190611979565b60405180910390f35b61021c610997565b6040516102299190611804565b60405180910390f35b61024c60048036038101906102479190611482565b6109c0565b6040516102599190611848565b60405180910390f35b61027c60048036038101906102779190611482565b610b4e565b6040516102899190611979565b60405180910390f35b6102ac60048036038101906102a791906114d4565b610d53565b005b6102c860048036038101906102c39190611482565b610f59565b005b6102d2610f6b565b6040516102df9190611863565b60405180910390f35b61030260048036038101906102fd9190611482565b610f91565b60405161030f9190611848565b60405180910390f35b610332600480360381019061032d9190611390565b6110c0565b005b600080600260009054906101000a900473ffffffffffffffffffffffffffffffffffffffff1673ffffffffffffffffffffffffffffffffffffffff16633755269b846040518263ffffffff1660e01b81526004016103929190611979565b60a06040518083038186803b1580156103aa57600080fd5b505afa1580156103be573d6000803e3d6000fd5b505050506040513d601f19601f820116820180604052508101906103e2919061140b565b5050509150508073ffffffffffffffffffffffffffffffffffffffff166372e08c41846040518263ffffffff1660e01b81526004016104219190611979565b60206040518083038186803b15801561043957600080fd5b505afa15801561044d573d6000803e3d6000fd5b505050506040513d601f19601f8201168201806040525081019061047191906114ab565b915050919050565b6000600460008381526020019081526020016000206040518060400160405290816000820154815260200160018201548152505090503373ffffffffffffffffffffffffffffffffffffffff16600160009054906101000a900473ffffffffffffffffffffffffffffffffffffffff1673ffffffffffffffffffffffffffffffffffffffff16636352211e846040518263ffffffff1660e01b81526004016105219190611979565b60206040518083038186803b15801561053957600080fd5b505afa15801561054d573d6000803e3d6000fd5b505050506040513d601f19601f8201168201806040525081019061057191906113b9565b73ffffffffffffffffffffffffffffffffffffffff16146105c7576040517f08c379a00000000000000000000000000000000000000000000000000000000081526004016105be906118f9565b60405180910390fd5b60001515600082600001511480156105e3575060008260200151145b151514610625576040517f08c379a000000000000000000000000000000000000000000000000000000000815260040161061c90611959565b60405180910390fd5b6004600083815260200190815260200160002060008082016000905560018201600090555050817f53adc3cdbd2a00a19712931a2336e983f4d57bc7aceddffb80e5b1641296e63a60405160405180910390a25050565b60035481565b60046020528060005260406000206000915090508060000154908060010154905082565b6106af816109c0565b6106ee576040517f08c379a00000000000000000000000000000000000000000000000000000000081526004016106e5906118b9565b60405180910390fd5b60046000828152602001908152602001600020600080820160009055600182016000905550506000600160009054906101000a900473ffffffffffffffffffffffffffffffffffffffff1673ffffffffffffffffffffffffffffffffffffffff16636352211e836040518263ffffffff1660e01b81526004016107719190611979565b60206040518083038186803b15801561078957600080fd5b505afa15801561079d573d6000803e3d6000fd5b505050506040513d601f19601f820116820180604052508101906107c191906113b9565b9050600260009054906101000a900473ffffffffffffffffffffffffffffffffffffffff1673ffffffffffffffffffffffffffffffffffffffff1663914fb51883836040518363ffffffff1660e01b8152600401610820929190611994565b600060405180830381600087803b15801561083a57600080fd5b505af115801561084e573d6000803e3d6000fd5b505050508073ffffffffffffffffffffffffffffffffffffffff16827fb452b355f64927210ef7b165a3af66d8a2e22fe4364daaae20b3459a02cc70f460405160405180910390a35050565b6108a2611144565b6108ac60006111c2565b565b600160009054906101000a900473ffffffffffffffffffffffffffffffffffffffff1681565b600080600260009054906101000a900473ffffffffffffffffffffffffffffffffffffffff1673ffffffffffffffffffffffffffffffffffffffff16633755269b846040518263ffffffff1660e01b81526004016109329190611979565b60a06040518083038186803b15801561094a57600080fd5b505afa15801561095e573d6000803e3d6000fd5b505050506040513d601f19601f82011682018060405250810190610982919061140b565b9450505050508063ffffffff16915050919050565b60008060009054906101000a900473ffffffffffffffffffffffffffffffffffffffff16905090565b60008060046000848152602001908152602001600020604051806040016040529081600082015481526020016001820154815250509050600160009054906101000a900473ffffffffffffffffffffffffffffffffffffffff1673ffffffffffffffffffffffffffffffffffffffff1663430c208130856040518363ffffffff1660e01b8152600401610a5492919061181f565b60206040518083038186803b158015610a6c57600080fd5b505afa158015610a80573d6000803e3d6000fd5b505050506040513d601f19601f82011682018060405250810190610aa491906113e2565b8015610ab857506000610ab684610334565b115b8015610ac95750610ac883610f91565b5b610ad7576000915050610b49565b600354610ae3846108d4565b610aed91906119f7565b421115610afe576001915050610b49565b6000610b0984610b4e565b90506000826000015114158015610b24575081600001518110155b80610b4457506000826020015114158015610b43575081602001518111155b5b925050505b919050565b600080600260009054906101000a900473ffffffffffffffffffffffffffffffffffffffff1673ffffffffffffffffffffffffffffffffffffffff16633755269b846040518263ffffffff1660e01b8152600401610bac9190611979565b60a06040518083038186803b158015610bc457600080fd5b505afa158015610bd8573d6000803e3d6000fd5b505050506040513d601f19601f82011682018060405250810190610bfc919061140b565b50505091505060008173ffffffffffffffffffffffffffffffffffffffff1663b888879e6040518163ffffffff1660e01b815260040160206040518083038186803b158015610c4a57600080fd5b505afa158015610c5e573d6000803e3d6000fd5b505050506040513d601f19601f82011682018060405250810190610c8291906113b9565b73ffffffffffffffffffffffffffffffffffffffff1663feaf968c6040518163ffffffff1660e01b815260040160a06040518083038186803b158015610cc757600080fd5b505afa158015610cdb573d6000803e3d6000fd5b505050506040513d601f19601f82011682018060405250810190610cff9190611510565b5050509150506000811415610d49576040517f08c379a0000000000000000000000000000000000000000000000000000000008152600401610d40906118d9565b60405180910390fd5b8092505050919050565b3373ffffffffffffffffffffffffffffffffffffffff16600160009054906101000a900473ffffffffffffffffffffffffffffffffffffffff1673ffffffffffffffffffffffffffffffffffffffff16636352211e846040518263ffffffff1660e01b8152600401610dc59190611979565b60206040518083038186803b158015610ddd57600080fd5b505afa158015610df1573d6000803e3d6000fd5b505050506040513d601f19601f82011682018060405250810190610e1591906113b9565b73ffffffffffffffffffffffffffffffffffffffff1614610e6b576040517f08c379a0000000000000000000000000000000000000000000000000000000008152600401610e62906118f9565b60405180910390fd5b610e74826108d4565b4210610eb5576040517f08c379a0000000000000000000000000000000000000000000000000000000008152600401610eac90611919565b60405180910390fd5b60405180604001604052808260000135815260200182602001358152506004600084815260200190815260200160002060008201518160000155602082015181600101559050503373ffffffffffffffffffffffffffffffffffffffff16827f1a2c40c410c41ee2535a20d2f1df26c8b10ef3fbd2837a5bbaa8dedb477164ca83600001358460200135604051610f4d9291906119bd565b60405180910390a35050565b610f61611144565b8060038190555050565b600260009054906101000a900473ffffffffffffffffffffffffffffffffffffffff1681565b600080600260009054906101000a900473ffffffffffffffffffffffffffffffffffffffff1673ffffffffffffffffffffffffffffffffffffffff16633755269b846040518263ffffffff1660e01b8152600401610fef9190611979565b60a06040518083038186803b15801561100757600080fd5b505afa15801561101b573d6000803e3d6000fd5b505050506040513d601f19601f8201168201806040525081019061103f919061140b565b50505050905060018081111561107e577f4e487b7100000000000000000000000000000000000000000000000000000000600052602160045260246000fd5b8160018111156110b7577f4e487b7100000000000000000000000000000000000000000000000000000000600052602160045260246000fd5b14915050919050565b6110c8611144565b600073ffffffffffffffffffffffffffffffffffffffff168173ffffffffffffffffffffffffffffffffffffffff161415611138576040517f08c379a000000000000000000000000000000000000000000000000000000000815260040161112f90611899565b60405180910390fd5b611141816111c2565b50565b61114c611286565b73ffffffffffffffffffffffffffffffffffffffff1661116a610997565b73ffffffffffffffffffffffffffffffffffffffff16146111c0576040517f08c379a00000000000000000000000000000000000000000000000000000000081526004016111b790611939565b60405180910390fd5b565b60008060009054906101000a900473ffffffffffffffffffffffffffffffffffffffff169050816000806101000a81548173ffffffffffffffffffffffffffffffffffffffff021916908373ffffffffffffffffffffffffffffffffffffffff1602179055508173ffffffffffffffffffffffffffffffffffffffff168173ffffffffffffffffffffffffffffffffffffffff167f8be0079c531659141344cd1fd0a4f28419497f9722a3daafe3b4186f6b6457e060405160405180910390a35050565b600033905090565b60008135905061129d81611b48565b92915050565b6000815190506112b281611b48565b92915050565b6000815190506112c781611b5f565b92915050565b6000815190506112dc81611b76565b92915050565b6000815190506112f181611b8d565b92915050565b60008151905061130681611b9d565b92915050565b60006040828403121561131e57600080fd5b81905092915050565b60008151905061133681611bb4565b92915050565b60008135905061134b81611bcb565b92915050565b60008151905061136081611bcb565b92915050565b60008151905061137581611be2565b92915050565b60008151905061138a81611bf9565b92915050565b6000602082840312156113a257600080fd5b60006113b08482850161128e565b91505092915050565b6000602082840312156113cb57600080fd5b60006113d9848285016112a3565b91505092915050565b6000602082840312156113f457600080fd5b6000611402848285016112b8565b91505092915050565b600080600080600060a0868803121561142357600080fd5b6000611431888289016112e2565b9550506020611442888289016112cd565b945050604061145388828901611327565b935050606061146488828901611327565b925050608061147588828901611366565b9150509295509295909350565b60006020828403121561149457600080fd5b60006114a28482850161133c565b91505092915050565b6000602082840312156114bd57600080fd5b60006114cb84828501611351565b91505092915050565b600080606083850312156114e757600080fd5b60006114f58582860161133c565b92505060206115068582860161130c565b9150509250929050565b600080600080600060a0868803121561152857600080fd5b60006115368882890161137b565b9550506020611547888289016112f7565b945050604061155888828901611351565b935050606061156988828901611351565b925050608061157a8882890161137b565b9150509295509295909350565b61159081611a2b565b82525050565b61159f81611a3d565b82525050565b6115ae81611ad1565b82525050565b6115bd81611af5565b82525050565b60006115d06026836119e6565b91507f4f776e61626c653a206e6577206f776e657220697320746865207a65726f206160008301527f64647265737300000000000000000000000000000000000000000000000000006020830152604082019050919050565b6000611636601e836119e6565b91507f54616b652070726f66697420636f6e646974696f6e73206e6f74206d657400006000830152602082019050919050565b6000611676600d836119e6565b91507f696e76616c6964207072696365000000000000000000000000000000000000006000830152602082019050919050565b60006116b66025836119e6565b91507f43616c6c6572206d75737420626520746865206f776e6572206f66207468652060008301527f746f6b656e0000000000000000000000000000000000000000000000000000006020830152604082019050919050565b600061171c6021836119e6565b91507f4f7074696f6e2065787069726174696f6e20646174652068617320706173736560008301527f64000000000000000000000000000000000000000000000000000000000000006020830152604082019050919050565b60006117826020836119e6565b91507f4f776e61626c653a2063616c6c6572206973206e6f7420746865206f776e65726000830152602082019050919050565b60006117c2601c836119e6565b91507f4e6f20746f6b656e2073657420666f722074616b652070726f666974000000006000830152602082019050919050565b6117fe81611aa1565b82525050565b60006020820190506118196000830184611587565b92915050565b60006040820190506118346000830185611587565b61184160208301846117f5565b9392505050565b600060208201905061185d6000830184611596565b92915050565b600060208201905061187860008301846115a5565b92915050565b600060208201905061189360008301846115b4565b92915050565b600060208201905081810360008301526118b2816115c3565b9050919050565b600060208201905081810360008301526118d281611629565b9050919050565b600060208201905081810360008301526118f281611669565b9050919050565b60006020820190508181036000830152611912816116a9565b9050919050565b600060208201905081810360008301526119328161170f565b9050919050565b6000602082019050818103600083015261195281611775565b9050919050565b60006020820190508181036000830152611972816117b5565b9050919050565b600060208201905061198e60008301846117f5565b92915050565b60006040820190506119a960008301856117f5565b6119b66020830184611587565b9392505050565b60006040820190506119d260008301856117f5565b6119df60208301846117f5565b9392505050565b600082825260208201905092915050565b6000611a0282611aa1565b9150611a0d83611aa1565b925082821015611a2057611a1f611b19565b5b828203905092915050565b6000611a3682611a81565b9050919050565b60008115159050919050565b6000611a5482611a2b565b9050919050565b6000819050919050565b60006fffffffffffffffffffffffffffffffff82169050919050565b600073ffffffffffffffffffffffffffffffffffffffff82169050919050565b6000819050919050565b600063ffffffff82169050919050565b600069ffffffffffffffffffff82169050919050565b6000611adc82611ae3565b9050919050565b6000611aee82611a81565b9050919050565b6000611b0082611b07565b9050919050565b6000611b1282611a81565b9050919050565b7f4e487b7100000000000000000000000000000000000000000000000000000000600052601160045260246000fd5b611b5181611a2b565b8114611b5c57600080fd5b50565b611b6881611a3d565b8114611b7357600080fd5b50565b611b7f81611a49565b8114611b8a57600080fd5b50565b60028110611b9a57600080fd5b50565b611ba681611a5b565b8114611bb157600080fd5b50565b611bbd81611a65565b8114611bc857600080fd5b50565b611bd481611aa1565b8114611bdf57600080fd5b50565b611beb81611aab565b8114611bf657600080fd5b50565b611c0281611abb565b8114611c0d57600080fd5b5056fea26469706673582212202d59be8cc4b35ede5ccbeb17615b0e8b9cb7158e0a518715dfcc813c0e7500e864736f6c63430008000033",
  "devdoc": {
    "author": "0nika0",
    "details": "A contract that enables users to set and execute take-profit orders on ERC721 tokens.",
    "kind": "dev",
    "methods": {
      "checkTakeProfit(uint256)": {
        "details": "Checks if the take profit conditions for a specific token have been triggered. ",
        "params": {
          "tokenId": "The unique identifier of the token for which take profit is being checked. "
        },
        "returns": {
          "takeProfitTriggered": "Boolean indicating whether the take profit conditions have been triggered or not."
        }
      },
      "deleteTakeProfit(uint256)": {
        "details": "Deletes the take profit configuration for a specific token.  This function allows the owner of a specified token to delete the associated take profit configuration. ",
        "params": {
          "tokenId": "The unique identifier of the token for which the take profit is being deleted.  Requirements: - The caller must be the owner of the token. - A valid take profit configuration must exist for the token."
        }
      },
      "executeTakeProfit(uint256)": {
        "details": "Executes the take profit for a specific token.  This function allows a user to execute the take profit conditions for a specified token. If the take profit conditions are met, the associated action, such as transferring the token and potentially paying off the profit, is executed. ",
        "params": {
          "tokenId": "The unique identifier of the token for which the take profit is being executed.  Requirements: - The take profit conditions must be met for the specified token."
        }
      },
      "getCurrentPrice(uint256)": {
        "details": "Retrieves the current price for a specific token ID. ",
        "params": {
          "tokenId": "The unique identifier of the token for which the current price is requested. "
        },
        "returns": {
          "_0": "The current price for the specified token in the form of a uint256.  Requirements: - The price retrieved must not be zero, indicating a valid price."
        }
      },
      "getExpirationTime(uint256)": {
        "details": "Retrieves the expiration time for a specific token ID. ",
        "params": {
          "tokenId": "The unique identifier of the token for which the expiration time is requested. "
        },
        "returns": {
          "_0": "The expiration time for the specified token in the form of a uint256."
        }
      },
      "getPayOffAmount(uint256)": {
        "details": "Retrieves the payoff amount for a specific token ID. ",
        "params": {
          "tokenId": "The unique identifier of the token for which the payoff amount is requested. "
        },
        "returns": {
          "_0": "The calculated payoff amount for the specified token."
        }
      },
      "isOptionActive(uint256)": {
        "details": "Checks whether a specific option with the given tokenId is currently active.  An active option means that it is in the 'Locked' state within the operational treasury. ",
        "params": {
          "tokenId": "The unique identifier of the option token being checked. "
        },
        "returns": {
          "_0": "A boolean value indicating whether the option is currently active (true) or not (false)."
        }
      },
      "owner()": {
        "details": "Returns the address of the current owner."
      },
      "renounceOwnership()": {
        "details": "Leaves the contract without owner. It will not be possible to call `onlyOwner` functions. Can only be called by the current owner. NOTE: Renouncing ownership will leave the contract without an owner, thereby disabling any functionality that is only available to the owner."
      },
      "setGlobalTimeToExecution(uint256)": {
        "details": "Updates the global time to execution for all take profit orders.",
        "params": {
          "newGlobalTimeToExecution": "The new global time duration, in seconds, before take profit orders are executed. Requirements: - Only the contract owner can set the new global time to execution."
        }
      },
      "setTakeProfit(uint256,(uint256,uint256))": {
        "details": "Sets the take profit conditions for a specific token. ",
        "params": {
          "takeProfitParams": "A `TakeInfo` struct containing the upper and lower stop prices.  Requirements: - The caller must be the owner of the token. - The token's expiration date must not have passed.",
          "tokenId": "The unique identifier of the token for which take profit is being set."
        }
      },
      "transferOwnership(address)": {
        "details": "Transfers ownership of the contract to a new account (`newOwner`). Can only be called by the current owner."
      }
    },
    "title": "TakeProfit",
    "version": 1
  },
  "userdoc": {
    "kind": "user",
    "methods": {},
    "version": 1
  },
  "storageLayout": {
    "storage": [
      {
        "astId": 72,
        "contract": "contracts/TakeProfit.sol:TakeProfit",
        "label": "_owner",
        "offset": 0,
        "slot": "0",
        "type": "t_address"
      },
      {
        "astId": 2019,
        "contract": "contracts/TakeProfit.sol:TakeProfit",
        "label": "positionManager",
        "offset": 0,
        "slot": "1",
        "type": "t_contract(IPositionsManager)1234"
      },
      {
        "astId": 2022,
        "contract": "contracts/TakeProfit.sol:TakeProfit",
        "label": "operationalTreasury",
        "offset": 0,
        "slot": "2",
        "type": "t_contract(IOperationalTreasury)1213"
      },
      {
        "astId": 2025,
        "contract": "contracts/TakeProfit.sol:TakeProfit",
        "label": "globalTimeToExecution",
        "offset": 0,
        "slot": "3",
        "type": "t_uint256"
      },
      {
        "astId": 2030,
        "contract": "contracts/TakeProfit.sol:TakeProfit",
        "label": "tokenIdToTakeInfo",
        "offset": 0,
        "slot": "4",
        "type": "t_mapping(t_uint256,t_struct(TakeInfo)1241_storage)"
      }
    ],
    "types": {
      "t_address": {
        "encoding": "inplace",
        "label": "address",
        "numberOfBytes": "20"
      },
      "t_contract(IOperationalTreasury)1213": {
        "encoding": "inplace",
        "label": "contract IOperationalTreasury",
        "numberOfBytes": "20"
      },
      "t_contract(IPositionsManager)1234": {
        "encoding": "inplace",
        "label": "contract IPositionsManager",
        "numberOfBytes": "20"
      },
      "t_mapping(t_uint256,t_struct(TakeInfo)1241_storage)": {
        "encoding": "mapping",
        "key": "t_uint256",
        "label": "mapping(uint256 => struct ITakeProfit.TakeInfo)",
        "numberOfBytes": "32",
        "value": "t_struct(TakeInfo)1241_storage"
      },
      "t_struct(TakeInfo)1241_storage": {
        "encoding": "inplace",
        "label": "struct ITakeProfit.TakeInfo",
        "members": [
          {
            "astId": 1238,
            "contract": "contracts/TakeProfit.sol:TakeProfit",
            "label": "upperStopPrice",
            "offset": 0,
            "slot": "0",
            "type": "t_uint256"
          },
          {
            "astId": 1240,
            "contract": "contracts/TakeProfit.sol:TakeProfit",
            "label": "lowerStopPrice",
            "offset": 0,
            "slot": "1",
            "type": "t_uint256"
          }
        ],
        "numberOfBytes": "64"
      },
      "t_uint256": {
        "encoding": "inplace",
        "label": "uint256",
        "numberOfBytes": "32"
      }
    }
  }
}