{
  "address": "0x1E578C112E56519edDd13B3DCFF488A5798C67bf",
  "abi": [
    {
      "inputs": [
        {
          "internalType": "address",
          "name": "_positionManager",
          "type": "address"
        },
        {
          "internalType": "address",
          "name": "_operationalTreasury",
          "type": "address"
        }
      ],
      "stateMutability": "nonpayable",
      "type": "constructor"
    },
    {
      "anonymous": false,
      "inputs": [
        {
          "indexed": true,
          "internalType": "address",
          "name": "previousOwner",
          "type": "address"
        },
        {
          "indexed": true,
          "internalType": "address",
          "name": "newOwner",
          "type": "address"
        }
      ],
      "name": "OwnershipTransferred",
      "type": "event"
    },
    {
      "anonymous": false,
      "inputs": [
        {
          "indexed": true,
          "internalType": "uint256",
          "name": "tokenId",
          "type": "uint256"
        }
      ],
      "name": "TakeProfitDeleted",
      "type": "event"
    },
    {
      "anonymous": false,
      "inputs": [
        {
          "indexed": true,
          "internalType": "uint256",
          "name": "tokenId",
          "type": "uint256"
        }
      ],
      "name": "TakeProfitExecuted",
      "type": "event"
    },
    {
      "anonymous": false,
      "inputs": [
        {
          "indexed": true,
          "internalType": "uint256",
          "name": "tokenId",
          "type": "uint256"
        },
        {
          "indexed": true,
          "internalType": "address",
          "name": "user",
          "type": "address"
        },
        {
          "indexed": false,
          "internalType": "uint256",
          "name": "upperStopPrice",
          "type": "uint256"
        },
        {
          "indexed": false,
          "internalType": "uint256",
          "name": "lowerStopPrice",
          "type": "uint256"
        }
      ],
      "name": "TakeProfitSet",
      "type": "event"
    },
    {
      "inputs": [
        {
          "internalType": "uint256",
          "name": "tokenId",
          "type": "uint256"
        }
      ],
      "name": "checkTakeProfit",
      "outputs": [
        {
          "internalType": "bool",
          "name": "takeProfitTriggered",
          "type": "bool"
        }
      ],
      "stateMutability": "view",
      "type": "function"
    },
    {
      "inputs": [
        {
          "internalType": "uint256",
          "name": "tokenId",
          "type": "uint256"
        }
      ],
      "name": "deleteTakeProfit",
      "outputs": [],
      "stateMutability": "nonpayable",
      "type": "function"
    },
    {
      "inputs": [
        {
          "internalType": "uint256",
          "name": "tokenId",
          "type": "uint256"
        }
      ],
      "name": "executeTakeProfit",
      "outputs": [],
      "stateMutability": "nonpayable",
      "type": "function"
    },
    {
      "inputs": [
        {
          "internalType": "uint256",
          "name": "tokenId",
          "type": "uint256"
        }
      ],
      "name": "getCurrentPrice",
      "outputs": [
        {
          "internalType": "uint256",
          "name": "",
          "type": "uint256"
        }
      ],
      "stateMutability": "view",
      "type": "function"
    },
    {
      "inputs": [
        {
          "internalType": "uint256",
          "name": "tokenId",
          "type": "uint256"
        }
      ],
      "name": "getExpirationTime",
      "outputs": [
        {
          "internalType": "uint256",
          "name": "",
          "type": "uint256"
        }
      ],
      "stateMutability": "view",
      "type": "function"
    },
    {
      "inputs": [
        {
          "internalType": "uint256",
          "name": "tokenId",
          "type": "uint256"
        }
      ],
      "name": "getPayOffAmount",
      "outputs": [
        {
          "internalType": "uint256",
          "name": "",
          "type": "uint256"
        }
      ],
      "stateMutability": "view",
      "type": "function"
    },
    {
      "inputs": [],
      "name": "globalTimeToExecution",
      "outputs": [
        {
          "internalType": "uint256",
          "name": "",
          "type": "uint256"
        }
      ],
      "stateMutability": "view",
      "type": "function"
    },
    {
      "inputs": [],
      "name": "operationalTreasury",
      "outputs": [
        {
          "internalType": "contract IOperationalTreasury",
          "name": "",
          "type": "address"
        }
      ],
      "stateMutability": "view",
      "type": "function"
    },
    {
      "inputs": [],
      "name": "owner",
      "outputs": [
        {
          "internalType": "address",
          "name": "",
          "type": "address"
        }
      ],
      "stateMutability": "view",
      "type": "function"
    },
    {
      "inputs": [],
      "name": "positionManager",
      "outputs": [
        {
          "internalType": "contract IPositionsManager",
          "name": "",
          "type": "address"
        }
      ],
      "stateMutability": "view",
      "type": "function"
    },
    {
      "inputs": [],
      "name": "renounceOwnership",
      "outputs": [],
      "stateMutability": "nonpayable",
      "type": "function"
    },
    {
      "inputs": [
        {
          "internalType": "uint256",
          "name": "newGlobalTimeToExecution",
          "type": "uint256"
        }
      ],
      "name": "setGlobalTimeToExecution",
      "outputs": [],
      "stateMutability": "nonpayable",
      "type": "function"
    },
    {
      "inputs": [
        {
          "internalType": "uint256",
          "name": "tokenId",
          "type": "uint256"
        },
        {
          "components": [
            {
              "internalType": "uint256",
              "name": "upperStopPrice",
              "type": "uint256"
            },
            {
              "internalType": "uint256",
              "name": "lowerStopPrice",
              "type": "uint256"
            }
          ],
          "internalType": "struct ITakeProfit.TakeInfo",
          "name": "takeProfitParams",
          "type": "tuple"
        }
      ],
      "name": "setTakeProfit",
      "outputs": [],
      "stateMutability": "nonpayable",
      "type": "function"
    },
    {
      "inputs": [
        {
          "internalType": "uint256",
          "name": "",
          "type": "uint256"
        }
      ],
      "name": "tokenIdToTakeInfo",
      "outputs": [
        {
          "internalType": "uint256",
          "name": "upperStopPrice",
          "type": "uint256"
        },
        {
          "internalType": "uint256",
          "name": "lowerStopPrice",
          "type": "uint256"
        }
      ],
      "stateMutability": "view",
      "type": "function"
    },
    {
      "inputs": [
        {
          "internalType": "address",
          "name": "newOwner",
          "type": "address"
        }
      ],
      "name": "transferOwnership",
      "outputs": [],
      "stateMutability": "nonpayable",
      "type": "function"
    }
  ],
  "transactionHash": "0x15b35b9bce5955015b562f32ee4de386adc70fd8104048cc79bf9761091a816a",
  "args": [
    "0x5Fe380D68fEe022d8acd42dc4D36FbfB249a76d5",
    "0xec096ea6eB9aa5ea689b0CF00882366E92377371"
  ],
  "numDeployments": 3,
  "solcInputHash": "837f64a3884bcbe91f972dfa81787feb",
  "bytecode": "0x60806040526107086003553480156200001757600080fd5b50604051620020203803806200202083398181016040528101906200003d9190620001ca565b6200005d62000051620000e760201b60201c565b620000ef60201b60201c565b81600160006101000a81548173ffffffffffffffffffffffffffffffffffffffff021916908373ffffffffffffffffffffffffffffffffffffffff16021790555080600260006101000a81548173ffffffffffffffffffffffffffffffffffffffff021916908373ffffffffffffffffffffffffffffffffffffffff160217905550505062000259565b600033905090565b60008060009054906101000a900473ffffffffffffffffffffffffffffffffffffffff169050816000806101000a81548173ffffffffffffffffffffffffffffffffffffffff021916908373ffffffffffffffffffffffffffffffffffffffff1602179055508173ffffffffffffffffffffffffffffffffffffffff168173ffffffffffffffffffffffffffffffffffffffff167f8be0079c531659141344cd1fd0a4f28419497f9722a3daafe3b4186f6b6457e060405160405180910390a35050565b600081519050620001c4816200023f565b92915050565b60008060408385031215620001de57600080fd5b6000620001ee85828601620001b3565b92505060206200020185828601620001b3565b9150509250929050565b600062000218826200021f565b9050919050565b600073ffffffffffffffffffffffffffffffffffffffff82169050919050565b6200024a816200020b565b81146200025657600080fd5b50565b611db780620002696000396000f3fe608060405234801561001057600080fd5b50600436106100f55760003560e01c8063858684b111610097578063c5ca042311610066578063c5ca042314610287578063d2830751146102a3578063d66aafa6146102bf578063f2fde38b146102dd576100f5565b8063858684b1146101d95780638da5cb5b14610209578063a0982e2c14610227578063c55d0f5614610257576100f5565b80633323d845116100d35780633323d8451461016457806352e80c6414610195578063715018a6146101b1578063791b98bc146101bb576100f5565b806312d85c30146100fa5780631f2219461461012a578063280d8c8814610146575b600080fd5b610114600480360381019061010f9190611536565b6102f9565b6040516101219190611aea565b60405180910390f35b610144600480360381019061013f9190611536565b61043e565b005b61014e610641565b60405161015b9190611aea565b60405180910390f35b61017e60048036038101906101799190611536565b610647565b60405161018c929190611b2e565b60405180910390f35b6101af60048036038101906101aa9190611536565b61066b565b005b6101b9610865565b005b6101c3610879565b6040516101d091906119cf565b60405180910390f35b6101f360048036038101906101ee9190611536565b61089f565b6040516102009190611aea565b60405180910390f35b610211610962565b60405161021e919061191e565b60405180910390f35b610241600480360381019061023c9190611536565b61098b565b60405161024e9190611999565b60405180910390f35b610271600480360381019061026c9190611536565b610b21565b60405161027e9190611aea565b60405180910390f35b6102a1600480360381019061029c9190611588565b610d26565b005b6102bd60048036038101906102b89190611536565b611018565b005b6102c761102a565b6040516102d491906119b4565b60405180910390f35b6102f760048036038101906102f29190611444565b611050565b005b600080600260009054906101000a900473ffffffffffffffffffffffffffffffffffffffff1673ffffffffffffffffffffffffffffffffffffffff16633755269b846040518263ffffffff1660e01b81526004016103579190611aea565b60a06040518083038186803b15801561036f57600080fd5b505afa158015610383573d6000803e3d6000fd5b505050506040513d601f19601f820116820180604052508101906103a791906114bf565b5050509150508073ffffffffffffffffffffffffffffffffffffffff166372e08c41846040518263ffffffff1660e01b81526004016103e69190611aea565b60206040518083038186803b1580156103fe57600080fd5b505afa158015610412573d6000803e3d6000fd5b505050506040513d601f19601f82011682018060405250810190610436919061155f565b915050919050565b6000600460008381526020019081526020016000206040518060400160405290816000820154815260200160018201548152505090503373ffffffffffffffffffffffffffffffffffffffff16600160009054906101000a900473ffffffffffffffffffffffffffffffffffffffff1673ffffffffffffffffffffffffffffffffffffffff16636352211e846040518263ffffffff1660e01b81526004016104e69190611aea565b60206040518083038186803b1580156104fe57600080fd5b505afa158015610512573d6000803e3d6000fd5b505050506040513d601f19601f82011682018060405250810190610536919061146d565b73ffffffffffffffffffffffffffffffffffffffff161461058c576040517f08c379a000000000000000000000000000000000000000000000000000000000815260040161058390611a4a565b60405180910390fd5b60001515600082600001511480156105a8575060008260200151145b1515146105ea576040517f08c379a00000000000000000000000000000000000000000000000000000000081526004016105e190611aca565b60405180910390fd5b6004600083815260200190815260200160002060008082016000905560018201600090555050817f53adc3cdbd2a00a19712931a2336e983f4d57bc7aceddffb80e5b1641296e63a60405160405180910390a25050565b60035481565b60046020528060005260406000206000915090508060000154908060010154905082565b6106748161098b565b6106b3576040517f08c379a00000000000000000000000000000000000000000000000000000000081526004016106aa90611a0a565b60405180910390fd5b60046000828152602001908152602001600020600080820160009055600182016000905550506000600160009054906101000a900473ffffffffffffffffffffffffffffffffffffffff1673ffffffffffffffffffffffffffffffffffffffff16636352211e836040518263ffffffff1660e01b81526004016107369190611aea565b60206040518083038186803b15801561074e57600080fd5b505afa158015610762573d6000803e3d6000fd5b505050506040513d601f19601f82011682018060405250810190610786919061146d565b9050600160009054906101000a900473ffffffffffffffffffffffffffffffffffffffff1673ffffffffffffffffffffffffffffffffffffffff166323b872dd8230856040518463ffffffff1660e01b81526004016107e793929190611939565b600060405180830381600087803b15801561080157600080fd5b505af1158015610815573d6000803e3d6000fd5b505050506108228261089f565b4210156108345761083382826110d4565b5b817f056f38a7514faaac10b1a6c03d6684fea2ccde3f067dac930fd045bed2907ab460405160405180910390a25050565b61086d6111f8565b6108776000611276565b565b600160009054906101000a900473ffffffffffffffffffffffffffffffffffffffff1681565b600080600260009054906101000a900473ffffffffffffffffffffffffffffffffffffffff1673ffffffffffffffffffffffffffffffffffffffff16633755269b846040518263ffffffff1660e01b81526004016108fd9190611aea565b60a06040518083038186803b15801561091557600080fd5b505afa158015610929573d6000803e3d6000fd5b505050506040513d601f19601f8201168201806040525081019061094d91906114bf565b9450505050508063ffffffff16915050919050565b60008060009054906101000a900473ffffffffffffffffffffffffffffffffffffffff16905090565b6000806004600084815260200190815260200160002060405180604001604052908160008201548152602001600182015481525050905060001515600160009054906101000a900473ffffffffffffffffffffffffffffffffffffffff1673ffffffffffffffffffffffffffffffffffffffff1663430c208130866040518363ffffffff1660e01b8152600401610a23929190611970565b60206040518083038186803b158015610a3b57600080fd5b505afa158015610a4f573d6000803e3d6000fd5b505050506040513d601f19601f82011682018060405250810190610a739190611496565b15151480610a905750600015156000610a8b856102f9565b111515145b15610a9f576000915050610b1c565b600354610aab8461089f565b610ab59190611b68565b421115610ac6576001915050610b1c565b6000610ad184610b21565b90506000826000015114610af65781600001518110610af557600192505050610b1c565b5b6000826020015114610b195781602001518111610b1857600192505050610b1c565b5b50505b919050565b600080600260009054906101000a900473ffffffffffffffffffffffffffffffffffffffff1673ffffffffffffffffffffffffffffffffffffffff16633755269b846040518263ffffffff1660e01b8152600401610b7f9190611aea565b60a06040518083038186803b158015610b9757600080fd5b505afa158015610bab573d6000803e3d6000fd5b505050506040513d601f19601f82011682018060405250810190610bcf91906114bf565b50505091505060008173ffffffffffffffffffffffffffffffffffffffff1663b888879e6040518163ffffffff1660e01b815260040160206040518083038186803b158015610c1d57600080fd5b505afa158015610c31573d6000803e3d6000fd5b505050506040513d601f19601f82011682018060405250810190610c55919061146d565b73ffffffffffffffffffffffffffffffffffffffff1663feaf968c6040518163ffffffff1660e01b815260040160a06040518083038186803b158015610c9a57600080fd5b505afa158015610cae573d6000803e3d6000fd5b505050506040513d601f19601f82011682018060405250810190610cd291906115c4565b5050509150506000811415610d1c576040517f08c379a0000000000000000000000000000000000000000000000000000000008152600401610d1390611a2a565b60405180910390fd5b8092505050919050565b3373ffffffffffffffffffffffffffffffffffffffff16600160009054906101000a900473ffffffffffffffffffffffffffffffffffffffff1673ffffffffffffffffffffffffffffffffffffffff16636352211e846040518263ffffffff1660e01b8152600401610d989190611aea565b60206040518083038186803b158015610db057600080fd5b505afa158015610dc4573d6000803e3d6000fd5b505050506040513d601f19601f82011682018060405250810190610de8919061146d565b73ffffffffffffffffffffffffffffffffffffffff1614610e3e576040517f08c379a0000000000000000000000000000000000000000000000000000000008152600401610e3590611a4a565b60405180910390fd5b600160009054906101000a900473ffffffffffffffffffffffffffffffffffffffff1673ffffffffffffffffffffffffffffffffffffffff1663430c208130846040518363ffffffff1660e01b8152600401610e9b929190611970565b60206040518083038186803b158015610eb357600080fd5b505afa158015610ec7573d6000803e3d6000fd5b505050506040513d601f19601f82011682018060405250810190610eeb9190611496565b610f2a576040517f08c379a0000000000000000000000000000000000000000000000000000000008152600401610f2190611aaa565b60405180910390fd5b610f338261089f565b4210610f74576040517f08c379a0000000000000000000000000000000000000000000000000000000008152600401610f6b90611a6a565b60405180910390fd5b60405180604001604052808260000135815260200182602001358152506004600084815260200190815260200160002060008201518160000155602082015181600101559050503373ffffffffffffffffffffffffffffffffffffffff16827f1a2c40c410c41ee2535a20d2f1df26c8b10ef3fbd2837a5bbaa8dedb477164ca8360000135846020013560405161100c929190611b2e565b60405180910390a35050565b6110206111f8565b8060038190555050565b600260009054906101000a900473ffffffffffffffffffffffffffffffffffffffff1681565b6110586111f8565b600073ffffffffffffffffffffffffffffffffffffffff168173ffffffffffffffffffffffffffffffffffffffff1614156110c8576040517f08c379a00000000000000000000000000000000000000000000000000000000081526004016110bf906119ea565b60405180910390fd5b6110d181611276565b50565b600260009054906101000a900473ffffffffffffffffffffffffffffffffffffffff1673ffffffffffffffffffffffffffffffffffffffff1663914fb51883836040518363ffffffff1660e01b8152600401611131929190611b05565b600060405180830381600087803b15801561114b57600080fd5b505af115801561115f573d6000803e3d6000fd5b50505050600160009054906101000a900473ffffffffffffffffffffffffffffffffffffffff1673ffffffffffffffffffffffffffffffffffffffff166323b872dd3083856040518463ffffffff1660e01b81526004016111c293929190611939565b600060405180830381600087803b1580156111dc57600080fd5b505af11580156111f0573d6000803e3d6000fd5b505050505050565b61120061133a565b73ffffffffffffffffffffffffffffffffffffffff1661121e610962565b73ffffffffffffffffffffffffffffffffffffffff1614611274576040517f08c379a000000000000000000000000000000000000000000000000000000000815260040161126b90611a8a565b60405180910390fd5b565b60008060009054906101000a900473ffffffffffffffffffffffffffffffffffffffff169050816000806101000a81548173ffffffffffffffffffffffffffffffffffffffff021916908373ffffffffffffffffffffffffffffffffffffffff1602179055508173ffffffffffffffffffffffffffffffffffffffff168173ffffffffffffffffffffffffffffffffffffffff167f8be0079c531659141344cd1fd0a4f28419497f9722a3daafe3b4186f6b6457e060405160405180910390a35050565b600033905090565b60008135905061135181611cb9565b92915050565b60008151905061136681611cb9565b92915050565b60008151905061137b81611cd0565b92915050565b60008151905061139081611ce7565b92915050565b6000815190506113a581611cfe565b92915050565b6000815190506113ba81611d0e565b92915050565b6000604082840312156113d257600080fd5b81905092915050565b6000815190506113ea81611d25565b92915050565b6000813590506113ff81611d3c565b92915050565b60008151905061141481611d3c565b92915050565b60008151905061142981611d53565b92915050565b60008151905061143e81611d6a565b92915050565b60006020828403121561145657600080fd5b600061146484828501611342565b91505092915050565b60006020828403121561147f57600080fd5b600061148d84828501611357565b91505092915050565b6000602082840312156114a857600080fd5b60006114b68482850161136c565b91505092915050565b600080600080600060a086880312156114d757600080fd5b60006114e588828901611396565b95505060206114f688828901611381565b9450506040611507888289016113db565b9350506060611518888289016113db565b92505060806115298882890161141a565b9150509295509295909350565b60006020828403121561154857600080fd5b6000611556848285016113f0565b91505092915050565b60006020828403121561157157600080fd5b600061157f84828501611405565b91505092915050565b6000806060838503121561159b57600080fd5b60006115a9858286016113f0565b92505060206115ba858286016113c0565b9150509250929050565b600080600080600060a086880312156115dc57600080fd5b60006115ea8882890161142f565b95505060206115fb888289016113ab565b945050604061160c88828901611405565b935050606061161d88828901611405565b925050608061162e8882890161142f565b9150509295509295909350565b61164481611b9c565b82525050565b61165381611bae565b82525050565b61166281611c42565b82525050565b61167181611c66565b82525050565b6000611684602683611b57565b91507f4f776e61626c653a206e6577206f776e657220697320746865207a65726f206160008301527f64647265737300000000000000000000000000000000000000000000000000006020830152604082019050919050565b60006116ea601e83611b57565b91507f54616b652070726f66697420636f6e646974696f6e73206e6f74206d657400006000830152602082019050919050565b600061172a600d83611b57565b91507f696e76616c6964207072696365000000000000000000000000000000000000006000830152602082019050919050565b600061176a602583611b57565b91507f43616c6c6572206d75737420626520746865206f776e6572206f66207468652060008301527f746f6b656e0000000000000000000000000000000000000000000000000000006020830152604082019050919050565b60006117d0602183611b57565b91507f4f7074696f6e2065787069726174696f6e20646174652068617320706173736560008301527f64000000000000000000000000000000000000000000000000000000000000006020830152604082019050919050565b6000611836602083611b57565b91507f4f776e61626c653a2063616c6c6572206973206e6f7420746865206f776e65726000830152602082019050919050565b6000611876602d83611b57565b91507f5468697320746f6b656e4964206973206e6f7420617070726f76656420666f7260008301527f20746869732061646472657373000000000000000000000000000000000000006020830152604082019050919050565b60006118dc601c83611b57565b91507f4e6f20746f6b656e2073657420666f722074616b652070726f666974000000006000830152602082019050919050565b61191881611c12565b82525050565b6000602082019050611933600083018461163b565b92915050565b600060608201905061194e600083018661163b565b61195b602083018561163b565b611968604083018461190f565b949350505050565b6000604082019050611985600083018561163b565b611992602083018461190f565b9392505050565b60006020820190506119ae600083018461164a565b92915050565b60006020820190506119c96000830184611659565b92915050565b60006020820190506119e46000830184611668565b92915050565b60006020820190508181036000830152611a0381611677565b9050919050565b60006020820190508181036000830152611a23816116dd565b9050919050565b60006020820190508181036000830152611a438161171d565b9050919050565b60006020820190508181036000830152611a638161175d565b9050919050565b60006020820190508181036000830152611a83816117c3565b9050919050565b60006020820190508181036000830152611aa381611829565b9050919050565b60006020820190508181036000830152611ac381611869565b9050919050565b60006020820190508181036000830152611ae3816118cf565b9050919050565b6000602082019050611aff600083018461190f565b92915050565b6000604082019050611b1a600083018561190f565b611b27602083018461163b565b9392505050565b6000604082019050611b43600083018561190f565b611b50602083018461190f565b9392505050565b600082825260208201905092915050565b6000611b7382611c12565b9150611b7e83611c12565b925082821015611b9157611b90611c8a565b5b828203905092915050565b6000611ba782611bf2565b9050919050565b60008115159050919050565b6000611bc582611b9c565b9050919050565b6000819050919050565b60006fffffffffffffffffffffffffffffffff82169050919050565b600073ffffffffffffffffffffffffffffffffffffffff82169050919050565b6000819050919050565b600063ffffffff82169050919050565b600069ffffffffffffffffffff82169050919050565b6000611c4d82611c54565b9050919050565b6000611c5f82611bf2565b9050919050565b6000611c7182611c78565b9050919050565b6000611c8382611bf2565b9050919050565b7f4e487b7100000000000000000000000000000000000000000000000000000000600052601160045260246000fd5b611cc281611b9c565b8114611ccd57600080fd5b50565b611cd981611bae565b8114611ce457600080fd5b50565b611cf081611bba565b8114611cfb57600080fd5b50565b60028110611d0b57600080fd5b50565b611d1781611bcc565b8114611d2257600080fd5b50565b611d2e81611bd6565b8114611d3957600080fd5b50565b611d4581611c12565b8114611d5057600080fd5b50565b611d5c81611c1c565b8114611d6757600080fd5b50565b611d7381611c2c565b8114611d7e57600080fd5b5056fea2646970667358221220e20dfcee37ee51fa1b591b2ff4754ce090a7537ef7f41bb471120874b761cac164736f6c63430008000033",
  "devdoc": {
    "author": "0nika0",
    "details": "A contract that enables users to set and execute take-profit orders on ERC721 tokens.",
    "kind": "dev",
    "methods": {
      "checkTakeProfit(uint256)": {
        "details": "See {ITakeProfit-checkTakeProfit}."
      },
      "deleteTakeProfit(uint256)": {
        "details": "See {ITakeProfit-deleteTakeProfit}."
      },
      "executeTakeProfit(uint256)": {
        "details": "See {ITakeProfit-executeTakeProfit}."
      },
      "getCurrentPrice(uint256)": {
        "details": "See {ITakeProfit-getCurrentPrice}."
      },
      "getExpirationTime(uint256)": {
        "details": "See {ITakeProfit-getExpirationTime}."
      },
      "getPayOffAmount(uint256)": {
        "details": "See {ITakeProfit-getPayOffAmount}."
      },
      "owner()": {
        "details": "Returns the address of the current owner."
      },
      "renounceOwnership()": {
        "details": "Leaves the contract without owner. It will not be possible to call `onlyOwner` functions. Can only be called by the current owner. NOTE: Renouncing ownership will leave the contract without an owner, thereby disabling any functionality that is only available to the owner."
      },
      "setGlobalTimeToExecution(uint256)": {
        "details": "See {ITakeProfit-setGlobalTimeToExecution}."
      },
      "setTakeProfit(uint256,(uint256,uint256))": {
        "details": "See {ITakeProfit-setTakeProfit}."
      },
      "transferOwnership(address)": {
        "details": "Transfers ownership of the contract to a new account (`newOwner`). Can only be called by the current owner."
      }
    },
    "title": "TakeProfit",
    "version": 1
  },
  "userdoc": {
    "kind": "user",
    "methods": {},
    "version": 1
  },
  "storageLayout": {
    "storage": [
      {
        "astId": 53,
        "contract": "contracts/TakeProfit.sol:TakeProfit",
        "label": "_owner",
        "offset": 0,
        "slot": "0",
        "type": "t_address"
      },
      {
        "astId": 490,
        "contract": "contracts/TakeProfit.sol:TakeProfit",
        "label": "positionManager",
        "offset": 0,
        "slot": "1",
        "type": "t_contract(IPositionsManager)380"
      },
      {
        "astId": 493,
        "contract": "contracts/TakeProfit.sol:TakeProfit",
        "label": "operationalTreasury",
        "offset": 0,
        "slot": "2",
        "type": "t_contract(IOperationalTreasury)359"
      },
      {
        "astId": 496,
        "contract": "contracts/TakeProfit.sol:TakeProfit",
        "label": "globalTimeToExecution",
        "offset": 0,
        "slot": "3",
        "type": "t_uint256"
      },
      {
        "astId": 501,
        "contract": "contracts/TakeProfit.sol:TakeProfit",
        "label": "tokenIdToTakeInfo",
        "offset": 0,
        "slot": "4",
        "type": "t_mapping(t_uint256,t_struct(TakeInfo)387_storage)"
      }
    ],
    "types": {
      "t_address": {
        "encoding": "inplace",
        "label": "address",
        "numberOfBytes": "20"
      },
      "t_contract(IOperationalTreasury)359": {
        "encoding": "inplace",
        "label": "contract IOperationalTreasury",
        "numberOfBytes": "20"
      },
      "t_contract(IPositionsManager)380": {
        "encoding": "inplace",
        "label": "contract IPositionsManager",
        "numberOfBytes": "20"
      },
      "t_mapping(t_uint256,t_struct(TakeInfo)387_storage)": {
        "encoding": "mapping",
        "key": "t_uint256",
        "label": "mapping(uint256 => struct ITakeProfit.TakeInfo)",
        "numberOfBytes": "32",
        "value": "t_struct(TakeInfo)387_storage"
      },
      "t_struct(TakeInfo)387_storage": {
        "encoding": "inplace",
        "label": "struct ITakeProfit.TakeInfo",
        "members": [
          {
            "astId": 384,
            "contract": "contracts/TakeProfit.sol:TakeProfit",
            "label": "upperStopPrice",
            "offset": 0,
            "slot": "0",
            "type": "t_uint256"
          },
          {
            "astId": 386,
            "contract": "contracts/TakeProfit.sol:TakeProfit",
            "label": "lowerStopPrice",
            "offset": 0,
            "slot": "1",
            "type": "t_uint256"
          }
        ],
        "numberOfBytes": "64"
      },
      "t_uint256": {
        "encoding": "inplace",
        "label": "uint256",
        "numberOfBytes": "32"
      }
    }
  }
}