{
  "address": "0x97A82029FBd762C06516c03632a4F2d0Cd834aB6",
  "abi": [
    {
      "inputs": [
        {
          "internalType": "address",
          "name": "_positionManager",
          "type": "address"
        },
        {
          "internalType": "address",
          "name": "_operationalTreasury",
          "type": "address"
        }
      ],
      "stateMutability": "nonpayable",
      "type": "constructor"
    },
    {
      "anonymous": false,
      "inputs": [
        {
          "indexed": true,
          "internalType": "address",
          "name": "previousOwner",
          "type": "address"
        },
        {
          "indexed": true,
          "internalType": "address",
          "name": "newOwner",
          "type": "address"
        }
      ],
      "name": "OwnershipTransferred",
      "type": "event"
    },
    {
      "anonymous": false,
      "inputs": [
        {
          "indexed": true,
          "internalType": "uint256",
          "name": "tokenId",
          "type": "uint256"
        }
      ],
      "name": "TakeProfitDeleted",
      "type": "event"
    },
    {
      "anonymous": false,
      "inputs": [
        {
          "indexed": true,
          "internalType": "uint256",
          "name": "tokenId",
          "type": "uint256"
        }
      ],
      "name": "TakeProfitExecuted",
      "type": "event"
    },
    {
      "anonymous": false,
      "inputs": [
        {
          "indexed": true,
          "internalType": "uint256",
          "name": "tokenId",
          "type": "uint256"
        },
        {
          "indexed": true,
          "internalType": "address",
          "name": "user",
          "type": "address"
        },
        {
          "indexed": false,
          "internalType": "uint256",
          "name": "upperStopPrice",
          "type": "uint256"
        },
        {
          "indexed": false,
          "internalType": "uint256",
          "name": "lowerStopPrice",
          "type": "uint256"
        }
      ],
      "name": "TakeProfitSet",
      "type": "event"
    },
    {
      "anonymous": false,
      "inputs": [
        {
          "indexed": true,
          "internalType": "uint256",
          "name": "tokenId",
          "type": "uint256"
        },
        {
          "indexed": false,
          "internalType": "uint256",
          "name": "upperStopPrice",
          "type": "uint256"
        },
        {
          "indexed": false,
          "internalType": "uint256",
          "name": "lowerStopPrice",
          "type": "uint256"
        }
      ],
      "name": "TakeProfitUpdated",
      "type": "event"
    },
    {
      "inputs": [
        {
          "internalType": "uint256",
          "name": "tokenId",
          "type": "uint256"
        }
      ],
      "name": "checkTakeProfit",
      "outputs": [
        {
          "internalType": "bool",
          "name": "takeProfitTriggered",
          "type": "bool"
        }
      ],
      "stateMutability": "view",
      "type": "function"
    },
    {
      "inputs": [
        {
          "internalType": "uint256",
          "name": "tokenId",
          "type": "uint256"
        }
      ],
      "name": "deleteTakeProfit",
      "outputs": [],
      "stateMutability": "nonpayable",
      "type": "function"
    },
    {
      "inputs": [
        {
          "internalType": "uint256",
          "name": "tokenId",
          "type": "uint256"
        }
      ],
      "name": "executeTakeProfit",
      "outputs": [],
      "stateMutability": "nonpayable",
      "type": "function"
    },
    {
      "inputs": [
        {
          "internalType": "uint256",
          "name": "tokenId",
          "type": "uint256"
        }
      ],
      "name": "getCurrentPrice",
      "outputs": [
        {
          "internalType": "uint256",
          "name": "",
          "type": "uint256"
        }
      ],
      "stateMutability": "view",
      "type": "function"
    },
    {
      "inputs": [
        {
          "internalType": "uint256",
          "name": "tokenId",
          "type": "uint256"
        }
      ],
      "name": "getExpirationTime",
      "outputs": [
        {
          "internalType": "uint256",
          "name": "",
          "type": "uint256"
        }
      ],
      "stateMutability": "view",
      "type": "function"
    },
    {
      "inputs": [
        {
          "internalType": "uint256",
          "name": "tokenId",
          "type": "uint256"
        }
      ],
      "name": "getPayOffAmount",
      "outputs": [
        {
          "internalType": "uint256",
          "name": "",
          "type": "uint256"
        }
      ],
      "stateMutability": "view",
      "type": "function"
    },
    {
      "inputs": [],
      "name": "globalTimeToExecution",
      "outputs": [
        {
          "internalType": "uint256",
          "name": "",
          "type": "uint256"
        }
      ],
      "stateMutability": "view",
      "type": "function"
    },
    {
      "inputs": [],
      "name": "operationalTreasury",
      "outputs": [
        {
          "internalType": "contract IOperationalTreasury",
          "name": "",
          "type": "address"
        }
      ],
      "stateMutability": "view",
      "type": "function"
    },
    {
      "inputs": [],
      "name": "owner",
      "outputs": [
        {
          "internalType": "address",
          "name": "",
          "type": "address"
        }
      ],
      "stateMutability": "view",
      "type": "function"
    },
    {
      "inputs": [],
      "name": "positionManager",
      "outputs": [
        {
          "internalType": "contract IPositionsManager",
          "name": "",
          "type": "address"
        }
      ],
      "stateMutability": "view",
      "type": "function"
    },
    {
      "inputs": [],
      "name": "renounceOwnership",
      "outputs": [],
      "stateMutability": "nonpayable",
      "type": "function"
    },
    {
      "inputs": [
        {
          "internalType": "uint256",
          "name": "newGlobalTimeToExecution",
          "type": "uint256"
        }
      ],
      "name": "setGlobalTimeToExecution",
      "outputs": [],
      "stateMutability": "nonpayable",
      "type": "function"
    },
    {
      "inputs": [
        {
          "internalType": "uint256",
          "name": "tokenId",
          "type": "uint256"
        },
        {
          "components": [
            {
              "internalType": "uint256",
              "name": "upperStopPrice",
              "type": "uint256"
            },
            {
              "internalType": "uint256",
              "name": "lowerStopPrice",
              "type": "uint256"
            }
          ],
          "internalType": "struct ITakeProfit.TakeInfo",
          "name": "takeProfitParams",
          "type": "tuple"
        }
      ],
      "name": "setTakeProfit",
      "outputs": [],
      "stateMutability": "nonpayable",
      "type": "function"
    },
    {
      "inputs": [
        {
          "internalType": "uint256",
          "name": "",
          "type": "uint256"
        }
      ],
      "name": "tokenIdToTakeInfo",
      "outputs": [
        {
          "internalType": "uint256",
          "name": "upperStopPrice",
          "type": "uint256"
        },
        {
          "internalType": "uint256",
          "name": "lowerStopPrice",
          "type": "uint256"
        }
      ],
      "stateMutability": "view",
      "type": "function"
    },
    {
      "inputs": [
        {
          "internalType": "address",
          "name": "newOwner",
          "type": "address"
        }
      ],
      "name": "transferOwnership",
      "outputs": [],
      "stateMutability": "nonpayable",
      "type": "function"
    },
    {
      "inputs": [
        {
          "internalType": "uint256",
          "name": "tokenId",
          "type": "uint256"
        },
        {
          "components": [
            {
              "internalType": "uint256",
              "name": "upperStopPrice",
              "type": "uint256"
            },
            {
              "internalType": "uint256",
              "name": "lowerStopPrice",
              "type": "uint256"
            }
          ],
          "internalType": "struct ITakeProfit.TakeInfo",
          "name": "takeProfitParams",
          "type": "tuple"
        }
      ],
      "name": "updateTakeProfit",
      "outputs": [],
      "stateMutability": "nonpayable",
      "type": "function"
    }
  ],
  "transactionHash": "0xa3d18961433c3bbe6e234352e58c248ec005f3424935fb73a07efe5e23c90c7a",
  "args": [
    "0x5Fe380D68fEe022d8acd42dc4D36FbfB249a76d5",
    "0xec096ea6eB9aa5ea689b0CF00882366E92377371"
  ],
  "numDeployments": 1,
  "solcInputHash": "79e36d5c1641ed3731a8b6c1c6dcfa4d",
  "bytecode": "0x60806040526107086003553480156200001757600080fd5b506040516200225c3803806200225c83398181016040528101906200003d9190620001ca565b6200005d62000051620000e760201b60201c565b620000ef60201b60201c565b81600160006101000a81548173ffffffffffffffffffffffffffffffffffffffff021916908373ffffffffffffffffffffffffffffffffffffffff16021790555080600260006101000a81548173ffffffffffffffffffffffffffffffffffffffff021916908373ffffffffffffffffffffffffffffffffffffffff160217905550505062000259565b600033905090565b60008060009054906101000a900473ffffffffffffffffffffffffffffffffffffffff169050816000806101000a81548173ffffffffffffffffffffffffffffffffffffffff021916908373ffffffffffffffffffffffffffffffffffffffff1602179055508173ffffffffffffffffffffffffffffffffffffffff168173ffffffffffffffffffffffffffffffffffffffff167f8be0079c531659141344cd1fd0a4f28419497f9722a3daafe3b4186f6b6457e060405160405180910390a35050565b600081519050620001c4816200023f565b92915050565b60008060408385031215620001de57600080fd5b6000620001ee85828601620001b3565b92505060206200020185828601620001b3565b9150509250929050565b600062000218826200021f565b9050919050565b600073ffffffffffffffffffffffffffffffffffffffff82169050919050565b6200024a816200020b565b81146200025657600080fd5b50565b611ff380620002696000396000f3fe608060405234801561001057600080fd5b50600436106101005760003560e01c8063858684b111610097578063c5ca042311610066578063c5ca0423146102ae578063d2830751146102ca578063d66aafa6146102e6578063f2fde38b1461030457610100565b8063858684b1146102005780638da5cb5b14610230578063a0982e2c1461024e578063c55d0f561461027e57610100565b806352e80c64116100d357806352e80c64146101a0578063715018a6146101bc578063791b98bc146101c657806381cf2020146101e457610100565b806312d85c30146101055780631f22194614610135578063280d8c88146101515780633323d8451461016f575b600080fd5b61011f600480360381019061011a9190611772565b610320565b60405161012c9190611d26565b60405180910390f35b61014f600480360381019061014a9190611772565b610465565b005b610159610663565b6040516101669190611d26565b60405180910390f35b61018960048036038101906101849190611772565b610669565b604051610197929190611d6a565b60405180910390f35b6101ba60048036038101906101b59190611772565b61068d565b005b6101c4610887565b005b6101ce61089b565b6040516101db9190611c0b565b60405180910390f35b6101fe60048036038101906101f991906117c4565b6108c1565b005b61021a60048036038101906102159190611772565b610af3565b6040516102279190611d26565b60405180910390f35b610238610bb6565b6040516102459190611b5a565b60405180910390f35b61026860048036038101906102639190611772565b610bdf565b6040516102759190611bd5565b60405180910390f35b61029860048036038101906102939190611772565b610d5d565b6040516102a59190611d26565b60405180910390f35b6102c860048036038101906102c391906117c4565b610f62565b005b6102e460048036038101906102df9190611772565b611254565b005b6102ee611266565b6040516102fb9190611bf0565b60405180910390f35b61031e60048036038101906103199190611680565b61128c565b005b600080600260009054906101000a900473ffffffffffffffffffffffffffffffffffffffff1673ffffffffffffffffffffffffffffffffffffffff16633755269b846040518263ffffffff1660e01b815260040161037e9190611d26565b60a06040518083038186803b15801561039657600080fd5b505afa1580156103aa573d6000803e3d6000fd5b505050506040513d601f19601f820116820180604052508101906103ce91906116fb565b5050509150508073ffffffffffffffffffffffffffffffffffffffff166372e08c41846040518263ffffffff1660e01b815260040161040d9190611d26565b60206040518083038186803b15801561042557600080fd5b505afa158015610439573d6000803e3d6000fd5b505050506040513d601f19601f8201168201806040525081019061045d919061179b565b915050919050565b6000600460008381526020019081526020016000206040518060400160405290816000820154815260200160018201548152505090503373ffffffffffffffffffffffffffffffffffffffff16600160009054906101000a900473ffffffffffffffffffffffffffffffffffffffff1673ffffffffffffffffffffffffffffffffffffffff16636352211e846040518263ffffffff1660e01b815260040161050d9190611d26565b60206040518083038186803b15801561052557600080fd5b505afa158015610539573d6000803e3d6000fd5b505050506040513d601f19601f8201168201806040525081019061055d91906116a9565b73ffffffffffffffffffffffffffffffffffffffff16146105b3576040517f08c379a00000000000000000000000000000000000000000000000000000000081526004016105aa90611c86565b60405180910390fd5b60008160000151141580156105cd57506000816020015114155b61060c576040517f08c379a000000000000000000000000000000000000000000000000000000000815260040161060390611d06565b60405180910390fd5b6004600083815260200190815260200160002060008082016000905560018201600090555050817f53adc3cdbd2a00a19712931a2336e983f4d57bc7aceddffb80e5b1641296e63a60405160405180910390a25050565b60035481565b60046020528060005260406000206000915090508060000154908060010154905082565b61069681610bdf565b6106d5576040517f08c379a00000000000000000000000000000000000000000000000000000000081526004016106cc90611c46565b60405180910390fd5b60046000828152602001908152602001600020600080820160009055600182016000905550506000600160009054906101000a900473ffffffffffffffffffffffffffffffffffffffff1673ffffffffffffffffffffffffffffffffffffffff16636352211e836040518263ffffffff1660e01b81526004016107589190611d26565b60206040518083038186803b15801561077057600080fd5b505afa158015610784573d6000803e3d6000fd5b505050506040513d601f19601f820116820180604052508101906107a891906116a9565b9050600160009054906101000a900473ffffffffffffffffffffffffffffffffffffffff1673ffffffffffffffffffffffffffffffffffffffff166323b872dd8230856040518463ffffffff1660e01b815260040161080993929190611b75565b600060405180830381600087803b15801561082357600080fd5b505af1158015610837573d6000803e3d6000fd5b5050505061084482610af3565b421015610856576108558282611310565b5b817f056f38a7514faaac10b1a6c03d6684fea2ccde3f067dac930fd045bed2907ab460405160405180910390a25050565b61088f611434565b61089960006114b2565b565b600160009054906101000a900473ffffffffffffffffffffffffffffffffffffffff1681565b60006004600084815260200190815260200160002090503373ffffffffffffffffffffffffffffffffffffffff16600160009054906101000a900473ffffffffffffffffffffffffffffffffffffffff1673ffffffffffffffffffffffffffffffffffffffff16636352211e856040518263ffffffff1660e01b815260040161094a9190611d26565b60206040518083038186803b15801561096257600080fd5b505afa158015610976573d6000803e3d6000fd5b505050506040513d601f19601f8201168201806040525081019061099a91906116a9565b73ffffffffffffffffffffffffffffffffffffffff16146109f0576040517f08c379a00000000000000000000000000000000000000000000000000000000081526004016109e790611c86565b60405180910390fd5b60008160000154141580610a0957506000816001015414155b610a48576040517f08c379a0000000000000000000000000000000000000000000000000000000008152600401610a3f90611d06565b60405180910390fd5b610a5183610af3565b4210610a92576040517f08c379a0000000000000000000000000000000000000000000000000000000008152600401610a8990611ca6565b60405180910390fd5b8160000135816000018190555081602001358160010181905550827f826f4328c2cf6c660021d0180ffedfb2a79ac79db382303f2b604512e267eed983600001358460200135604051610ae6929190611d6a565b60405180910390a2505050565b600080600260009054906101000a900473ffffffffffffffffffffffffffffffffffffffff1673ffffffffffffffffffffffffffffffffffffffff16633755269b846040518263ffffffff1660e01b8152600401610b519190611d26565b60a06040518083038186803b158015610b6957600080fd5b505afa158015610b7d573d6000803e3d6000fd5b505050506040513d601f19601f82011682018060405250810190610ba191906116fb565b9450505050508063ffffffff16915050919050565b60008060009054906101000a900473ffffffffffffffffffffffffffffffffffffffff16905090565b6000806004600084815260200190815260200160002060405180604001604052908160008201548152602001600182015481525050905060001515600160009054906101000a900473ffffffffffffffffffffffffffffffffffffffff1673ffffffffffffffffffffffffffffffffffffffff1663430c208130866040518363ffffffff1660e01b8152600401610c77929190611bac565b60206040518083038186803b158015610c8f57600080fd5b505afa158015610ca3573d6000803e3d6000fd5b505050506040513d601f19601f82011682018060405250810190610cc791906116d2565b15151480610ce45750600015156000610cdf85610320565b111515145b15610cf3576000915050610d58565b600354610cff84610af3565b610d099190611da4565b421115610d1a576001915050610d58565b6000610d2584610d5d565b90506000826000015114610d3e57816000015181101592505b6000826020015114610d5557816020015181111592505b50505b919050565b600080600260009054906101000a900473ffffffffffffffffffffffffffffffffffffffff1673ffffffffffffffffffffffffffffffffffffffff16633755269b846040518263ffffffff1660e01b8152600401610dbb9190611d26565b60a06040518083038186803b158015610dd357600080fd5b505afa158015610de7573d6000803e3d6000fd5b505050506040513d601f19601f82011682018060405250810190610e0b91906116fb565b50505091505060008173ffffffffffffffffffffffffffffffffffffffff1663b888879e6040518163ffffffff1660e01b815260040160206040518083038186803b158015610e5957600080fd5b505afa158015610e6d573d6000803e3d6000fd5b505050506040513d601f19601f82011682018060405250810190610e9191906116a9565b73ffffffffffffffffffffffffffffffffffffffff1663feaf968c6040518163ffffffff1660e01b815260040160a06040518083038186803b158015610ed657600080fd5b505afa158015610eea573d6000803e3d6000fd5b505050506040513d601f19601f82011682018060405250810190610f0e9190611800565b5050509150506000811415610f58576040517f08c379a0000000000000000000000000000000000000000000000000000000008152600401610f4f90611c66565b60405180910390fd5b8092505050919050565b3373ffffffffffffffffffffffffffffffffffffffff16600160009054906101000a900473ffffffffffffffffffffffffffffffffffffffff1673ffffffffffffffffffffffffffffffffffffffff16636352211e846040518263ffffffff1660e01b8152600401610fd49190611d26565b60206040518083038186803b158015610fec57600080fd5b505afa158015611000573d6000803e3d6000fd5b505050506040513d601f19601f8201168201806040525081019061102491906116a9565b73ffffffffffffffffffffffffffffffffffffffff161461107a576040517f08c379a000000000000000000000000000000000000000000000000000000000815260040161107190611c86565b60405180910390fd5b600160009054906101000a900473ffffffffffffffffffffffffffffffffffffffff1673ffffffffffffffffffffffffffffffffffffffff1663430c208130846040518363ffffffff1660e01b81526004016110d7929190611bac565b60206040518083038186803b1580156110ef57600080fd5b505afa158015611103573d6000803e3d6000fd5b505050506040513d601f19601f8201168201806040525081019061112791906116d2565b611166576040517f08c379a000000000000000000000000000000000000000000000000000000000815260040161115d90611ce6565b60405180910390fd5b61116f82610af3565b42106111b0576040517f08c379a00000000000000000000000000000000000000000000000000000000081526004016111a790611ca6565b60405180910390fd5b60405180604001604052808260000135815260200182602001358152506004600084815260200190815260200160002060008201518160000155602082015181600101559050503373ffffffffffffffffffffffffffffffffffffffff16827f1a2c40c410c41ee2535a20d2f1df26c8b10ef3fbd2837a5bbaa8dedb477164ca83600001358460200135604051611248929190611d6a565b60405180910390a35050565b61125c611434565b8060038190555050565b600260009054906101000a900473ffffffffffffffffffffffffffffffffffffffff1681565b611294611434565b600073ffffffffffffffffffffffffffffffffffffffff168173ffffffffffffffffffffffffffffffffffffffff161415611304576040517f08c379a00000000000000000000000000000000000000000000000000000000081526004016112fb90611c26565b60405180910390fd5b61130d816114b2565b50565b600260009054906101000a900473ffffffffffffffffffffffffffffffffffffffff1673ffffffffffffffffffffffffffffffffffffffff1663914fb51883836040518363ffffffff1660e01b815260040161136d929190611d41565b600060405180830381600087803b15801561138757600080fd5b505af115801561139b573d6000803e3d6000fd5b50505050600160009054906101000a900473ffffffffffffffffffffffffffffffffffffffff1673ffffffffffffffffffffffffffffffffffffffff166323b872dd3083856040518463ffffffff1660e01b81526004016113fe93929190611b75565b600060405180830381600087803b15801561141857600080fd5b505af115801561142c573d6000803e3d6000fd5b505050505050565b61143c611576565b73ffffffffffffffffffffffffffffffffffffffff1661145a610bb6565b73ffffffffffffffffffffffffffffffffffffffff16146114b0576040517f08c379a00000000000000000000000000000000000000000000000000000000081526004016114a790611cc6565b60405180910390fd5b565b60008060009054906101000a900473ffffffffffffffffffffffffffffffffffffffff169050816000806101000a81548173ffffffffffffffffffffffffffffffffffffffff021916908373ffffffffffffffffffffffffffffffffffffffff1602179055508173ffffffffffffffffffffffffffffffffffffffff168173ffffffffffffffffffffffffffffffffffffffff167f8be0079c531659141344cd1fd0a4f28419497f9722a3daafe3b4186f6b6457e060405160405180910390a35050565b600033905090565b60008135905061158d81611ef5565b92915050565b6000815190506115a281611ef5565b92915050565b6000815190506115b781611f0c565b92915050565b6000815190506115cc81611f23565b92915050565b6000815190506115e181611f3a565b92915050565b6000815190506115f681611f4a565b92915050565b60006040828403121561160e57600080fd5b81905092915050565b60008151905061162681611f61565b92915050565b60008135905061163b81611f78565b92915050565b60008151905061165081611f78565b92915050565b60008151905061166581611f8f565b92915050565b60008151905061167a81611fa6565b92915050565b60006020828403121561169257600080fd5b60006116a08482850161157e565b91505092915050565b6000602082840312156116bb57600080fd5b60006116c984828501611593565b91505092915050565b6000602082840312156116e457600080fd5b60006116f2848285016115a8565b91505092915050565b600080600080600060a0868803121561171357600080fd5b6000611721888289016115d2565b9550506020611732888289016115bd565b945050604061174388828901611617565b935050606061175488828901611617565b925050608061176588828901611656565b9150509295509295909350565b60006020828403121561178457600080fd5b60006117928482850161162c565b91505092915050565b6000602082840312156117ad57600080fd5b60006117bb84828501611641565b91505092915050565b600080606083850312156117d757600080fd5b60006117e58582860161162c565b92505060206117f6858286016115fc565b9150509250929050565b600080600080600060a0868803121561181857600080fd5b60006118268882890161166b565b9550506020611837888289016115e7565b945050604061184888828901611641565b935050606061185988828901611641565b925050608061186a8882890161166b565b9150509295509295909350565b61188081611dd8565b82525050565b61188f81611dea565b82525050565b61189e81611e7e565b82525050565b6118ad81611ea2565b82525050565b60006118c0602683611d93565b91507f4f776e61626c653a206e6577206f776e657220697320746865207a65726f206160008301527f64647265737300000000000000000000000000000000000000000000000000006020830152604082019050919050565b6000611926601e83611d93565b91507f54616b652070726f66697420636f6e646974696f6e73206e6f74206d657400006000830152602082019050919050565b6000611966600d83611d93565b91507f696e76616c6964207072696365000000000000000000000000000000000000006000830152602082019050919050565b60006119a6602583611d93565b91507f43616c6c6572206d75737420626520746865206f776e6572206f66207468652060008301527f746f6b656e0000000000000000000000000000000000000000000000000000006020830152604082019050919050565b6000611a0c602183611d93565b91507f4f7074696f6e2065787069726174696f6e20646174652068617320706173736560008301527f64000000000000000000000000000000000000000000000000000000000000006020830152604082019050919050565b6000611a72602083611d93565b91507f4f776e61626c653a2063616c6c6572206973206e6f7420746865206f776e65726000830152602082019050919050565b6000611ab2602d83611d93565b91507f5468697320746f6b656e4964206973206e6f7420617070726f76656420666f7260008301527f20746869732061646472657373000000000000000000000000000000000000006020830152604082019050919050565b6000611b18601c83611d93565b91507f4e6f20746f6b656e2073657420666f722074616b652070726f666974000000006000830152602082019050919050565b611b5481611e4e565b82525050565b6000602082019050611b6f6000830184611877565b92915050565b6000606082019050611b8a6000830186611877565b611b976020830185611877565b611ba46040830184611b4b565b949350505050565b6000604082019050611bc16000830185611877565b611bce6020830184611b4b565b9392505050565b6000602082019050611bea6000830184611886565b92915050565b6000602082019050611c056000830184611895565b92915050565b6000602082019050611c2060008301846118a4565b92915050565b60006020820190508181036000830152611c3f816118b3565b9050919050565b60006020820190508181036000830152611c5f81611919565b9050919050565b60006020820190508181036000830152611c7f81611959565b9050919050565b60006020820190508181036000830152611c9f81611999565b9050919050565b60006020820190508181036000830152611cbf816119ff565b9050919050565b60006020820190508181036000830152611cdf81611a65565b9050919050565b60006020820190508181036000830152611cff81611aa5565b9050919050565b60006020820190508181036000830152611d1f81611b0b565b9050919050565b6000602082019050611d3b6000830184611b4b565b92915050565b6000604082019050611d566000830185611b4b565b611d636020830184611877565b9392505050565b6000604082019050611d7f6000830185611b4b565b611d8c6020830184611b4b565b9392505050565b600082825260208201905092915050565b6000611daf82611e4e565b9150611dba83611e4e565b925082821015611dcd57611dcc611ec6565b5b828203905092915050565b6000611de382611e2e565b9050919050565b60008115159050919050565b6000611e0182611dd8565b9050919050565b6000819050919050565b60006fffffffffffffffffffffffffffffffff82169050919050565b600073ffffffffffffffffffffffffffffffffffffffff82169050919050565b6000819050919050565b600063ffffffff82169050919050565b600069ffffffffffffffffffff82169050919050565b6000611e8982611e90565b9050919050565b6000611e9b82611e2e565b9050919050565b6000611ead82611eb4565b9050919050565b6000611ebf82611e2e565b9050919050565b7f4e487b7100000000000000000000000000000000000000000000000000000000600052601160045260246000fd5b611efe81611dd8565b8114611f0957600080fd5b50565b611f1581611dea565b8114611f2057600080fd5b50565b611f2c81611df6565b8114611f3757600080fd5b50565b60028110611f4757600080fd5b50565b611f5381611e08565b8114611f5e57600080fd5b50565b611f6a81611e12565b8114611f7557600080fd5b50565b611f8181611e4e565b8114611f8c57600080fd5b50565b611f9881611e58565b8114611fa357600080fd5b50565b611faf81611e68565b8114611fba57600080fd5b5056fea26469706673582212207463043e3b5c078438b520f7e77b1c53757358f2fb56bbee831c72dd70b9bb5f64736f6c63430008000033",
  "devdoc": {
    "author": "0nika0",
    "details": "A contract that enables users to set and execute take-profit orders on ERC721 tokens.",
    "kind": "dev",
    "methods": {
      "checkTakeProfit(uint256)": {
        "details": "See {ITakeProfit-checkTakeProfit}."
      },
      "deleteTakeProfit(uint256)": {
        "details": "See {ITakeProfit-deleteTakeProfit}."
      },
      "executeTakeProfit(uint256)": {
        "details": "See {ITakeProfit-executeTakeProfit}."
      },
      "getCurrentPrice(uint256)": {
        "details": "See {ITakeProfit-getCurrentPrice}."
      },
      "getExpirationTime(uint256)": {
        "details": "See {ITakeProfit-getExpirationTime}."
      },
      "getPayOffAmount(uint256)": {
        "details": "See {ITakeProfit-getPayOffAmount}."
      },
      "owner()": {
        "details": "Returns the address of the current owner."
      },
      "renounceOwnership()": {
        "details": "Leaves the contract without owner. It will not be possible to call `onlyOwner` functions. Can only be called by the current owner. NOTE: Renouncing ownership will leave the contract without an owner, thereby disabling any functionality that is only available to the owner."
      },
      "setGlobalTimeToExecution(uint256)": {
        "details": "See {ITakeProfit-setGlobalTimeToExecution}."
      },
      "setTakeProfit(uint256,(uint256,uint256))": {
        "details": "See {ITakeProfit-setTakeProfit}."
      },
      "transferOwnership(address)": {
        "details": "Transfers ownership of the contract to a new account (`newOwner`). Can only be called by the current owner."
      },
      "updateTakeProfit(uint256,(uint256,uint256))": {
        "details": "See {ITakeProfit-updateTakeProfit}."
      }
    },
    "title": "TakeProfit",
    "version": 1
  },
  "userdoc": {
    "kind": "user",
    "methods": {},
    "version": 1
  },
  "storageLayout": {
    "storage": [
      {
        "astId": 72,
        "contract": "contracts/TakeProfit.sol:TakeProfit",
        "label": "_owner",
        "offset": 0,
        "slot": "0",
        "type": "t_address"
      },
      {
        "astId": 605,
        "contract": "contracts/TakeProfit.sol:TakeProfit",
        "label": "positionManager",
        "offset": 0,
        "slot": "1",
        "type": "t_contract(IPositionsManager)477"
      },
      {
        "astId": 608,
        "contract": "contracts/TakeProfit.sol:TakeProfit",
        "label": "operationalTreasury",
        "offset": 0,
        "slot": "2",
        "type": "t_contract(IOperationalTreasury)456"
      },
      {
        "astId": 611,
        "contract": "contracts/TakeProfit.sol:TakeProfit",
        "label": "globalTimeToExecution",
        "offset": 0,
        "slot": "3",
        "type": "t_uint256"
      },
      {
        "astId": 616,
        "contract": "contracts/TakeProfit.sol:TakeProfit",
        "label": "tokenIdToTakeInfo",
        "offset": 0,
        "slot": "4",
        "type": "t_mapping(t_uint256,t_struct(TakeInfo)484_storage)"
      }
    ],
    "types": {
      "t_address": {
        "encoding": "inplace",
        "label": "address",
        "numberOfBytes": "20"
      },
      "t_contract(IOperationalTreasury)456": {
        "encoding": "inplace",
        "label": "contract IOperationalTreasury",
        "numberOfBytes": "20"
      },
      "t_contract(IPositionsManager)477": {
        "encoding": "inplace",
        "label": "contract IPositionsManager",
        "numberOfBytes": "20"
      },
      "t_mapping(t_uint256,t_struct(TakeInfo)484_storage)": {
        "encoding": "mapping",
        "key": "t_uint256",
        "label": "mapping(uint256 => struct ITakeProfit.TakeInfo)",
        "numberOfBytes": "32",
        "value": "t_struct(TakeInfo)484_storage"
      },
      "t_struct(TakeInfo)484_storage": {
        "encoding": "inplace",
        "label": "struct ITakeProfit.TakeInfo",
        "members": [
          {
            "astId": 481,
            "contract": "contracts/TakeProfit.sol:TakeProfit",
            "label": "upperStopPrice",
            "offset": 0,
            "slot": "0",
            "type": "t_uint256"
          },
          {
            "astId": 483,
            "contract": "contracts/TakeProfit.sol:TakeProfit",
            "label": "lowerStopPrice",
            "offset": 0,
            "slot": "1",
            "type": "t_uint256"
          }
        ],
        "numberOfBytes": "64"
      },
      "t_uint256": {
        "encoding": "inplace",
        "label": "uint256",
        "numberOfBytes": "32"
      }
    }
  }
}