{
  "address": "0x23345A1c2C26a4055a8a01282C685d4aE33bd8B6",
  "abi": [
    {
      "inputs": [
        {
          "internalType": "contract ILinkTokenInterface",
          "name": "_link",
          "type": "address"
        },
        {
          "internalType": "contract IClonableBeaconProxy",
          "name": "_beacon",
          "type": "address"
        }
      ],
      "stateMutability": "nonpayable",
      "type": "constructor"
    },
    {
      "anonymous": false,
      "inputs": [
        {
          "indexed": true,
          "internalType": "address",
          "name": "previousOwner",
          "type": "address"
        },
        {
          "indexed": true,
          "internalType": "address",
          "name": "newOwner",
          "type": "address"
        }
      ],
      "name": "OwnershipTransferred",
      "type": "event"
    },
    {
      "inputs": [
        {
          "internalType": "uint256",
          "name": "id",
          "type": "uint256"
        }
      ],
      "name": "addUpkeepId",
      "outputs": [],
      "stateMutability": "nonpayable",
      "type": "function"
    },
    {
      "inputs": [
        {
          "internalType": "uint256",
          "name": "amount",
          "type": "uint256"
        }
      ],
      "name": "allApprove",
      "outputs": [],
      "stateMutability": "nonpayable",
      "type": "function"
    },
    {
      "inputs": [],
      "name": "beacon",
      "outputs": [
        {
          "internalType": "contract IClonableBeaconProxy",
          "name": "",
          "type": "address"
        }
      ],
      "stateMutability": "view",
      "type": "function"
    },
    {
      "inputs": [
        {
          "internalType": "bytes",
          "name": "",
          "type": "bytes"
        }
      ],
      "name": "checkUpkeep",
      "outputs": [
        {
          "internalType": "bool",
          "name": "upkeepNeeded",
          "type": "bool"
        },
        {
          "internalType": "bytes",
          "name": "performData",
          "type": "bytes"
        }
      ],
      "stateMutability": "view",
      "type": "function"
    },
    {
      "inputs": [
        {
          "internalType": "uint256",
          "name": "id",
          "type": "uint256"
        }
      ],
      "name": "getUpkeepBalance",
      "outputs": [
        {
          "internalType": "uint256",
          "name": "balance",
          "type": "uint256"
        }
      ],
      "stateMutability": "view",
      "type": "function"
    },
    {
      "inputs": [
        {
          "internalType": "uint256",
          "name": "",
          "type": "uint256"
        }
      ],
      "name": "indexToUpkeepIds",
      "outputs": [
        {
          "internalType": "uint256",
          "name": "",
          "type": "uint256"
        }
      ],
      "stateMutability": "view",
      "type": "function"
    },
    {
      "inputs": [],
      "name": "link",
      "outputs": [
        {
          "internalType": "contract ILinkTokenInterface",
          "name": "",
          "type": "address"
        }
      ],
      "stateMutability": "view",
      "type": "function"
    },
    {
      "inputs": [],
      "name": "minBalance",
      "outputs": [
        {
          "internalType": "uint256",
          "name": "",
          "type": "uint256"
        }
      ],
      "stateMutability": "view",
      "type": "function"
    },
    {
      "inputs": [],
      "name": "nextIndex",
      "outputs": [
        {
          "internalType": "uint256",
          "name": "",
          "type": "uint256"
        }
      ],
      "stateMutability": "view",
      "type": "function"
    },
    {
      "inputs": [],
      "name": "owner",
      "outputs": [
        {
          "internalType": "address",
          "name": "",
          "type": "address"
        }
      ],
      "stateMutability": "view",
      "type": "function"
    },
    {
      "inputs": [
        {
          "internalType": "bytes",
          "name": "performData",
          "type": "bytes"
        }
      ],
      "name": "performUpkeep",
      "outputs": [],
      "stateMutability": "nonpayable",
      "type": "function"
    },
    {
      "inputs": [],
      "name": "provideAmount",
      "outputs": [
        {
          "internalType": "uint256",
          "name": "",
          "type": "uint256"
        }
      ],
      "stateMutability": "view",
      "type": "function"
    },
    {
      "inputs": [],
      "name": "renounceOwnership",
      "outputs": [],
      "stateMutability": "nonpayable",
      "type": "function"
    },
    {
      "inputs": [
        {
          "internalType": "contract IClonableBeaconProxy",
          "name": "newBeacon",
          "type": "address"
        }
      ],
      "name": "setBeacon",
      "outputs": [],
      "stateMutability": "nonpayable",
      "type": "function"
    },
    {
      "inputs": [
        {
          "internalType": "uint256",
          "name": "newMinBalance",
          "type": "uint256"
        }
      ],
      "name": "setMinBalance",
      "outputs": [],
      "stateMutability": "nonpayable",
      "type": "function"
    },
    {
      "inputs": [
        {
          "internalType": "uint256",
          "name": "newProvideAmount",
          "type": "uint256"
        }
      ],
      "name": "setProvideAmount",
      "outputs": [],
      "stateMutability": "nonpayable",
      "type": "function"
    },
    {
      "inputs": [
        {
          "internalType": "uint256",
          "name": "id",
          "type": "uint256"
        },
        {
          "internalType": "uint256",
          "name": "index",
          "type": "uint256"
        }
      ],
      "name": "setUpkeepId",
      "outputs": [],
      "stateMutability": "nonpayable",
      "type": "function"
    },
    {
      "inputs": [
        {
          "internalType": "address",
          "name": "newOwner",
          "type": "address"
        }
      ],
      "name": "transferOwnership",
      "outputs": [],
      "stateMutability": "nonpayable",
      "type": "function"
    },
    {
      "inputs": [
        {
          "internalType": "uint256",
          "name": "amount",
          "type": "uint256"
        }
      ],
      "name": "withdraw",
      "outputs": [],
      "stateMutability": "nonpayable",
      "type": "function"
    }
  ],
  "transactionHash": "0x88b7290c5e20f697f4741e8239624e2ef7783702732241d0b0cf7182738e358c",
  "args": [
    "0xf97f4df75117a78c1A5a0DBb814Af92458539FB4",
    "0x37D9dC70bfcd8BC77Ec2858836B923c560E891D1"
  ],
  "numDeployments": 5,
  "solcInputHash": "d373fa9a0089a3d33139cda294409ca0",
  "bytecode": "0x608060405268015af1d78b58c40000600155674563918244f400006002553480156200002a57600080fd5b5060405162001744380380620017448339818101604052810190620000509190620001f4565b6200007062000064620000fa60201b60201c565b6200010260201b60201c565b81600360006101000a81548173ffffffffffffffffffffffffffffffffffffffff021916908373ffffffffffffffffffffffffffffffffffffffff16021790555080600460006101000a81548173ffffffffffffffffffffffffffffffffffffffff021916908373ffffffffffffffffffffffffffffffffffffffff1602179055505050620002c5565b600033905090565b60008060009054906101000a900473ffffffffffffffffffffffffffffffffffffffff169050816000806101000a81548173ffffffffffffffffffffffffffffffffffffffff021916908373ffffffffffffffffffffffffffffffffffffffff1602179055508173ffffffffffffffffffffffffffffffffffffffff168173ffffffffffffffffffffffffffffffffffffffff167f8be0079c531659141344cd1fd0a4f28419497f9722a3daafe3b4186f6b6457e060405160405180910390a35050565b600081519050620001d78162000291565b92915050565b600081519050620001ee81620002ab565b92915050565b600080604083850312156200020857600080fd5b60006200021885828601620001dd565b92505060206200022b85828601620001c6565b9150509250929050565b6000620002428262000271565b9050919050565b6000620002568262000235565b9050919050565b60006200026a8262000235565b9050919050565b600073ffffffffffffffffffffffffffffffffffffffff82169050919050565b6200029c8162000249565b8114620002a857600080fd5b50565b620002b6816200025d565b8114620002c257600080fd5b50565b61146f80620002d56000396000f3fe608060405234801561001057600080fd5b50600436106101215760003560e01c8063ac9be7db116100ad578063c91d956c11610071578063c91d956c146102cf578063d42afb56146102eb578063f2fde38b14610307578063fc7e9c6f14610323578063ff0fadce1461034157610121565b8063ac9be7db1461022d578063ad7f0da614610249578063b29ea97014610279578063c560741d14610295578063c5bb8758146102b157610121565b806359659e90116100f457806359659e901461019a57806362ba61fb146101b85780636e04ff0d146101d4578063715018a6146102055780638da5cb5b1461020f57610121565b80631c4695f4146101265780632e1a7d4d1461014457806336f6c633146101605780634585e33b1461017e575b600080fd5b61012e610371565b60405161013b91906110cb565b60405180910390f35b61015e60048036038101906101599190610e6f565b610397565b005b610168610452565b6040516101759190611126565b60405180910390f35b61019860048036038101906101939190610dc0565b610458565b005b6101a2610578565b6040516101af91906110b0565b60405180910390f35b6101d260048036038101906101cd9190610e6f565b61059e565b005b6101ee60048036038101906101e99190610dc0565b610673565b6040516101fc929190611080565b60405180910390f35b61020d610722565b005b610217610736565b6040516102249190610ffe565b60405180910390f35b61024760048036038101906102429190610e6f565b61075f565b005b610263600480360381019061025e9190610e6f565b610771565b6040516102709190611126565b60405180910390f35b610293600480360381019061028e9190610e6f565b610841565b005b6102af60048036038101906102aa9190610e98565b61087e565b005b6102b96108a2565b6040516102c69190611126565b60405180910390f35b6102e960048036038101906102e49190610e6f565b6108a8565b005b61030560048036038101906103009190610e05565b6108ba565b005b610321600480360381019061031c9190610d6e565b610906565b005b61032b61098a565b6040516103389190611126565b60405180910390f35b61035b60048036038101906103569190610e6f565b610990565b6040516103689190611126565b60405180910390f35b600360009054906101000a900473ffffffffffffffffffffffffffffffffffffffff1681565b61039f6109a8565b600360009054906101000a900473ffffffffffffffffffffffffffffffffffffffff1673ffffffffffffffffffffffffffffffffffffffff1663a9059cbb33836040518363ffffffff1660e01b81526004016103fc929190611019565b602060405180830381600087803b15801561041657600080fd5b505af115801561042a573d6000803e3d6000fd5b505050506040513d601f19601f8201168201806040525081019061044e9190610d97565b5050565b60025481565b600082828101906104699190610e6f565b905060015461047782610771565b101561057357600360009054906101000a900473ffffffffffffffffffffffffffffffffffffffff1673ffffffffffffffffffffffffffffffffffffffff16634000aea0600460009054906101000a900473ffffffffffffffffffffffffffffffffffffffff16600254846040516020016104f29190611126565b6040516020818303038152906040526040518463ffffffff1660e01b815260040161051f93929190611042565b602060405180830381600087803b15801561053957600080fd5b505af115801561054d573d6000803e3d6000fd5b505050506040513d601f19601f820116820180604052508101906105719190610d97565b505b505050565b600460009054906101000a900473ffffffffffffffffffffffffffffffffffffffff1681565b600360009054906101000a900473ffffffffffffffffffffffffffffffffffffffff1673ffffffffffffffffffffffffffffffffffffffff1663095ea7b3600460009054906101000a900473ffffffffffffffffffffffffffffffffffffffff16836040518363ffffffff1660e01b815260040161061d929190611019565b602060405180830381600087803b15801561063757600080fd5b505af115801561064b573d6000803e3d6000fd5b505050506040513d601f19601f8201168201806040525081019061066f9190610d97565b5050565b600060606000915060005b60065481101561071a576000600560008381526020019081526020016000205414610707576001546106c26005600084815260200190815260200160002054610771565b1015610706576001925060056000828152602001908152602001600020546040516020016106f09190611126565b604051602081830303815290604052915061071a565b5b8080610712906112e0565b91505061067e565b509250929050565b61072a6109a8565b6107346000610a26565b565b60008060009054906101000a900473ffffffffffffffffffffffffffffffffffffffff16905090565b6107676109a8565b8060028190555050565b600080600460009054906101000a900473ffffffffffffffffffffffffffffffffffffffff1673ffffffffffffffffffffffffffffffffffffffff1663c7c3a19a846040518263ffffffff1660e01b81526004016107cf9190611126565b60006040518083038186803b1580156107e757600080fd5b505afa1580156107fb573d6000803e3d6000fd5b505050506040513d6000823e3d601f19601f820116820180604052508101906108249190610e2e565b905080606001516bffffffffffffffffffffffff16915050919050565b6108496109a8565b806005600060065481526020019081526020016000208190555060066000815480929190610876906112e0565b919050555050565b6108866109a8565b8160056000838152602001908152602001600020819055505050565b60015481565b6108b06109a8565b8060018190555050565b6108c26109a8565b80600460006101000a81548173ffffffffffffffffffffffffffffffffffffffff021916908373ffffffffffffffffffffffffffffffffffffffff16021790555050565b61090e6109a8565b600073ffffffffffffffffffffffffffffffffffffffff168173ffffffffffffffffffffffffffffffffffffffff16141561097e576040517f08c379a0000000000000000000000000000000000000000000000000000000008152600401610975906110e6565b60405180910390fd5b61098781610a26565b50565b60065481565b60056020528060005260406000206000915090505481565b6109b0610aea565b73ffffffffffffffffffffffffffffffffffffffff166109ce610736565b73ffffffffffffffffffffffffffffffffffffffff1614610a24576040517f08c379a0000000000000000000000000000000000000000000000000000000008152600401610a1b90611106565b60405180910390fd5b565b60008060009054906101000a900473ffffffffffffffffffffffffffffffffffffffff169050816000806101000a81548173ffffffffffffffffffffffffffffffffffffffff021916908373ffffffffffffffffffffffffffffffffffffffff1602179055508173ffffffffffffffffffffffffffffffffffffffff168173ffffffffffffffffffffffffffffffffffffffff167f8be0079c531659141344cd1fd0a4f28419497f9722a3daafe3b4186f6b6457e060405160405180910390a35050565b600033905090565b6000610b05610b0084611172565b611141565b905082815260208101848484011115610b1d57600080fd5b610b288482856112ad565b509392505050565b600081359050610b3f81611398565b92915050565b600081519050610b5481611398565b92915050565b600081519050610b69816113af565b92915050565b60008083601f840112610b8157600080fd5b8235905067ffffffffffffffff811115610b9a57600080fd5b602083019150836001820283011115610bb257600080fd5b9250929050565b600082601f830112610bca57600080fd5b8151610bda848260208601610af2565b91505092915050565b600081359050610bf2816113c6565b92915050565b60006101408284031215610c0b57600080fd5b610c16610140611141565b90506000610c2684828501610b45565b6000830152506020610c3a84828501610d2f565b602083015250604082015167ffffffffffffffff811115610c5a57600080fd5b610c6684828501610bb9565b6040830152506060610c7a84828501610d59565b6060830152506080610c8e84828501610b45565b60808301525060a0610ca284828501610d44565b60a08301525060c0610cb684828501610d2f565b60c08301525060e0610cca84828501610d59565b60e083015250610100610cdf84828501610b5a565b6101008301525061012082015167ffffffffffffffff811115610d0157600080fd5b610d0d84828501610bb9565b6101208301525092915050565b600081359050610d29816113dd565b92915050565b600081519050610d3e816113f4565b92915050565b600081519050610d538161140b565b92915050565b600081519050610d6881611422565b92915050565b600060208284031215610d8057600080fd5b6000610d8e84828501610b30565b91505092915050565b600060208284031215610da957600080fd5b6000610db784828501610b5a565b91505092915050565b60008060208385031215610dd357600080fd5b600083013567ffffffffffffffff811115610ded57600080fd5b610df985828601610b6f565b92509250509250929050565b600060208284031215610e1757600080fd5b6000610e2584828501610be3565b91505092915050565b600060208284031215610e4057600080fd5b600082015167ffffffffffffffff811115610e5a57600080fd5b610e6684828501610bf8565b91505092915050565b600060208284031215610e8157600080fd5b6000610e8f84828501610d1a565b91505092915050565b60008060408385031215610eab57600080fd5b6000610eb985828601610d1a565b9250506020610eca85828601610d1a565b9150509250929050565b610edd816111cf565b82525050565b610eec816111e1565b82525050565b6000610efd826111a2565b610f0781856111ad565b9350610f178185602086016112ad565b610f2081611387565b840191505092915050565b610f3481611265565b82525050565b610f4381611289565b82525050565b6000610f566026836111be565b91507f4f776e61626c653a206e6577206f776e657220697320746865207a65726f206160008301527f64647265737300000000000000000000000000000000000000000000000000006020830152604082019050919050565b6000610fbc6020836111be565b91507f4f776e61626c653a2063616c6c6572206973206e6f7420746865206f776e65726000830152602082019050919050565b610ff88161121f565b82525050565b60006020820190506110136000830184610ed4565b92915050565b600060408201905061102e6000830185610ed4565b61103b6020830184610fef565b9392505050565b60006060820190506110576000830186610ed4565b6110646020830185610fef565b81810360408301526110768184610ef2565b9050949350505050565b60006040820190506110956000830185610ee3565b81810360208301526110a78184610ef2565b90509392505050565b60006020820190506110c56000830184610f2b565b92915050565b60006020820190506110e06000830184610f3a565b92915050565b600060208201905081810360008301526110ff81610f49565b9050919050565b6000602082019050818103600083015261111f81610faf565b9050919050565b600060208201905061113b6000830184610fef565b92915050565b6000604051905081810181811067ffffffffffffffff8211171561116857611167611358565b5b8060405250919050565b600067ffffffffffffffff82111561118d5761118c611358565b5b601f19601f8301169050602081019050919050565b600081519050919050565b600082825260208201905092915050565b600082825260208201905092915050565b60006111da826111ff565b9050919050565b60008115159050919050565b60006111f8826111cf565b9050919050565b600073ffffffffffffffffffffffffffffffffffffffff82169050919050565b6000819050919050565b600063ffffffff82169050919050565b600067ffffffffffffffff82169050919050565b60006bffffffffffffffffffffffff82169050919050565b600061127082611277565b9050919050565b6000611282826111ff565b9050919050565b60006112948261129b565b9050919050565b60006112a6826111ff565b9050919050565b60005b838110156112cb5780820151818401526020810190506112b0565b838111156112da576000848401525b50505050565b60006112eb8261121f565b91507fffffffffffffffffffffffffffffffffffffffffffffffffffffffffffffffff82141561131e5761131d611329565b5b600182019050919050565b7f4e487b7100000000000000000000000000000000000000000000000000000000600052601160045260246000fd5b7f4e487b7100000000000000000000000000000000000000000000000000000000600052604160045260246000fd5b6000601f19601f8301169050919050565b6113a1816111cf565b81146113ac57600080fd5b50565b6113b8816111e1565b81146113c357600080fd5b50565b6113cf816111ed565b81146113da57600080fd5b50565b6113e68161121f565b81146113f157600080fd5b50565b6113fd81611229565b811461140857600080fd5b50565b61141481611239565b811461141f57600080fd5b50565b61142b8161124d565b811461143657600080fd5b5056fea2646970667358221220b3c08492cd0387f16cc0e3301935971f1c2e69a44bda87b83131c80b6ccd7c0564736f6c63430008000033",
  "devdoc": {
    "kind": "dev",
    "methods": {
      "owner()": {
        "details": "Returns the address of the current owner."
      },
      "performUpkeep(bytes)": {
        "details": "The input to this method should not be trusted, and the caller of the method should not even be restricted to any single registry. Anyone should be able call it, and the input should be validated, there is no guarantee that the data passed in is the performData returned from checkUpkeep. This could happen due to malicious keepers, racing keepers, or simply a state change while the performUpkeep transaction is waiting for confirmation. Always validate the data passed in.",
        "params": {
          "performData": "is the data which was passed back from the checkData simulation. If it is encoded, it can easily be decoded into other types by calling `abi.decode`. This data should not be trusted, and should be validated against the contract's current state."
        }
      },
      "renounceOwnership()": {
        "details": "Leaves the contract without owner. It will not be possible to call `onlyOwner` functions. Can only be called by the current owner. NOTE: Renouncing ownership will leave the contract without an owner, thereby disabling any functionality that is only available to the owner."
      },
      "transferOwnership(address)": {
        "details": "Transfers ownership of the contract to a new account (`newOwner`). Can only be called by the current owner."
      }
    },
    "version": 1
  },
  "userdoc": {
    "kind": "user",
    "methods": {
      "performUpkeep(bytes)": {
        "notice": "method that is actually executed by the keepers, via the registry. The data returned by the checkUpkeep simulation will be passed into this method to actually be executed."
      }
    },
    "version": 1
  },
  "storageLayout": {
    "storage": [
      {
        "astId": 72,
        "contract": "contracts/UpkeepBalances.sol:UpkeepBalances",
        "label": "_owner",
        "offset": 0,
        "slot": "0",
        "type": "t_address"
      },
      {
        "astId": 1075,
        "contract": "contracts/UpkeepBalances.sol:UpkeepBalances",
        "label": "minBalance",
        "offset": 0,
        "slot": "1",
        "type": "t_uint256"
      },
      {
        "astId": 1078,
        "contract": "contracts/UpkeepBalances.sol:UpkeepBalances",
        "label": "provideAmount",
        "offset": 0,
        "slot": "2",
        "type": "t_uint256"
      },
      {
        "astId": 1081,
        "contract": "contracts/UpkeepBalances.sol:UpkeepBalances",
        "label": "link",
        "offset": 0,
        "slot": "3",
        "type": "t_contract(ILinkTokenInterface)471"
      },
      {
        "astId": 1084,
        "contract": "contracts/UpkeepBalances.sol:UpkeepBalances",
        "label": "beacon",
        "offset": 0,
        "slot": "4",
        "type": "t_contract(IClonableBeaconProxy)359"
      },
      {
        "astId": 1088,
        "contract": "contracts/UpkeepBalances.sol:UpkeepBalances",
        "label": "indexToUpkeepIds",
        "offset": 0,
        "slot": "5",
        "type": "t_mapping(t_uint256,t_uint256)"
      },
      {
        "astId": 1090,
        "contract": "contracts/UpkeepBalances.sol:UpkeepBalances",
        "label": "nextIndex",
        "offset": 0,
        "slot": "6",
        "type": "t_uint256"
      }
    ],
    "types": {
      "t_address": {
        "encoding": "inplace",
        "label": "address",
        "numberOfBytes": "20"
      },
      "t_contract(IClonableBeaconProxy)359": {
        "encoding": "inplace",
        "label": "contract IClonableBeaconProxy",
        "numberOfBytes": "20"
      },
      "t_contract(ILinkTokenInterface)471": {
        "encoding": "inplace",
        "label": "contract ILinkTokenInterface",
        "numberOfBytes": "20"
      },
      "t_mapping(t_uint256,t_uint256)": {
        "encoding": "mapping",
        "key": "t_uint256",
        "label": "mapping(uint256 => uint256)",
        "numberOfBytes": "32",
        "value": "t_uint256"
      },
      "t_uint256": {
        "encoding": "inplace",
        "label": "uint256",
        "numberOfBytes": "32"
      }
    }
  }
}