{
  "address": "0xC79d38d449777484Ca36fbafc1453eA27FCcED2D",
  "abi": [
    {
      "inputs": [
        {
          "internalType": "contract ILinkTokenInterface",
          "name": "_link",
          "type": "address"
        },
        {
          "internalType": "contract IClonableBeaconProxy",
          "name": "_beacon",
          "type": "address"
        }
      ],
      "stateMutability": "nonpayable",
      "type": "constructor"
    },
    {
      "anonymous": false,
      "inputs": [
        {
          "indexed": true,
          "internalType": "address",
          "name": "previousOwner",
          "type": "address"
        },
        {
          "indexed": true,
          "internalType": "address",
          "name": "newOwner",
          "type": "address"
        }
      ],
      "name": "OwnershipTransferred",
      "type": "event"
    },
    {
      "inputs": [
        {
          "internalType": "uint256",
          "name": "id",
          "type": "uint256"
        }
      ],
      "name": "addUpkeepId",
      "outputs": [],
      "stateMutability": "nonpayable",
      "type": "function"
    },
    {
      "inputs": [
        {
          "internalType": "uint256",
          "name": "amount",
          "type": "uint256"
        }
      ],
      "name": "allApprove",
      "outputs": [],
      "stateMutability": "nonpayable",
      "type": "function"
    },
    {
      "inputs": [],
      "name": "beacon",
      "outputs": [
        {
          "internalType": "contract IClonableBeaconProxy",
          "name": "",
          "type": "address"
        }
      ],
      "stateMutability": "view",
      "type": "function"
    },
    {
      "inputs": [
        {
          "internalType": "bytes",
          "name": "",
          "type": "bytes"
        }
      ],
      "name": "checkUpkeep",
      "outputs": [
        {
          "internalType": "bool",
          "name": "upkeepNeeded",
          "type": "bool"
        },
        {
          "internalType": "bytes",
          "name": "performData",
          "type": "bytes"
        }
      ],
      "stateMutability": "view",
      "type": "function"
    },
    {
      "inputs": [
        {
          "internalType": "uint256",
          "name": "id",
          "type": "uint256"
        }
      ],
      "name": "getUpkeepBalance",
      "outputs": [
        {
          "internalType": "uint256",
          "name": "balance",
          "type": "uint256"
        }
      ],
      "stateMutability": "view",
      "type": "function"
    },
    {
      "inputs": [],
      "name": "link",
      "outputs": [
        {
          "internalType": "contract ILinkTokenInterface",
          "name": "",
          "type": "address"
        }
      ],
      "stateMutability": "view",
      "type": "function"
    },
    {
      "inputs": [],
      "name": "minBalance",
      "outputs": [
        {
          "internalType": "uint256",
          "name": "",
          "type": "uint256"
        }
      ],
      "stateMutability": "view",
      "type": "function"
    },
    {
      "inputs": [],
      "name": "owner",
      "outputs": [
        {
          "internalType": "address",
          "name": "",
          "type": "address"
        }
      ],
      "stateMutability": "view",
      "type": "function"
    },
    {
      "inputs": [
        {
          "internalType": "bytes",
          "name": "performData",
          "type": "bytes"
        }
      ],
      "name": "performUpkeep",
      "outputs": [],
      "stateMutability": "nonpayable",
      "type": "function"
    },
    {
      "inputs": [],
      "name": "provideAmount",
      "outputs": [
        {
          "internalType": "uint256",
          "name": "",
          "type": "uint256"
        }
      ],
      "stateMutability": "view",
      "type": "function"
    },
    {
      "inputs": [],
      "name": "renounceOwnership",
      "outputs": [],
      "stateMutability": "nonpayable",
      "type": "function"
    },
    {
      "inputs": [
        {
          "internalType": "contract IClonableBeaconProxy",
          "name": "newBeacon",
          "type": "address"
        }
      ],
      "name": "setBeacon",
      "outputs": [],
      "stateMutability": "nonpayable",
      "type": "function"
    },
    {
      "inputs": [
        {
          "internalType": "uint256",
          "name": "newMinBalance",
          "type": "uint256"
        }
      ],
      "name": "setMinBalance",
      "outputs": [],
      "stateMutability": "nonpayable",
      "type": "function"
    },
    {
      "inputs": [
        {
          "internalType": "uint256",
          "name": "newProvideAmount",
          "type": "uint256"
        }
      ],
      "name": "setProvideAmount",
      "outputs": [],
      "stateMutability": "nonpayable",
      "type": "function"
    },
    {
      "inputs": [
        {
          "internalType": "address",
          "name": "newOwner",
          "type": "address"
        }
      ],
      "name": "transferOwnership",
      "outputs": [],
      "stateMutability": "nonpayable",
      "type": "function"
    },
    {
      "inputs": [
        {
          "internalType": "uint256",
          "name": "",
          "type": "uint256"
        }
      ],
      "name": "upkeepIds",
      "outputs": [
        {
          "internalType": "uint256",
          "name": "",
          "type": "uint256"
        }
      ],
      "stateMutability": "view",
      "type": "function"
    },
    {
      "inputs": [
        {
          "internalType": "uint256",
          "name": "amount",
          "type": "uint256"
        }
      ],
      "name": "withdraw",
      "outputs": [],
      "stateMutability": "nonpayable",
      "type": "function"
    }
  ],
  "transactionHash": "0x320fbd16aa08b97e0d11f45ddcfbdffe6b42f94cac709a73eb3f45f8fd27561a",
  "args": [
    "0xf97f4df75117a78c1A5a0DBb814Af92458539FB4",
    "0x37D9dC70bfcd8BC77Ec2858836B923c560E891D1"
  ],
  "numDeployments": 4,
  "solcInputHash": "b4024315a2bac56f80858ed8d9ce5904",
  "bytecode": "0x6080604052674563918244f40000600155670de0b6b3a76400006002553480156200002957600080fd5b50604051620016d9380380620016d983398181016040528101906200004f9190620001f3565b6200006f62000063620000f960201b60201c565b6200010160201b60201c565b81600360006101000a81548173ffffffffffffffffffffffffffffffffffffffff021916908373ffffffffffffffffffffffffffffffffffffffff16021790555080600460006101000a81548173ffffffffffffffffffffffffffffffffffffffff021916908373ffffffffffffffffffffffffffffffffffffffff1602179055505050620002c4565b600033905090565b60008060009054906101000a900473ffffffffffffffffffffffffffffffffffffffff169050816000806101000a81548173ffffffffffffffffffffffffffffffffffffffff021916908373ffffffffffffffffffffffffffffffffffffffff1602179055508173ffffffffffffffffffffffffffffffffffffffff168173ffffffffffffffffffffffffffffffffffffffff167f8be0079c531659141344cd1fd0a4f28419497f9722a3daafe3b4186f6b6457e060405160405180910390a35050565b600081519050620001d68162000290565b92915050565b600081519050620001ed81620002aa565b92915050565b600080604083850312156200020757600080fd5b60006200021785828601620001dc565b92505060206200022a85828601620001c5565b9150509250929050565b6000620002418262000270565b9050919050565b6000620002558262000234565b9050919050565b6000620002698262000234565b9050919050565b600073ffffffffffffffffffffffffffffffffffffffff82169050919050565b6200029b8162000248565b8114620002a757600080fd5b50565b620002b5816200025c565b8114620002c157600080fd5b50565b61140580620002d46000396000f3fe608060405234801561001057600080fd5b506004361061010b5760003560e01c8063715018a6116100a2578063b29ea97011610071578063b29ea97014610293578063c5bb8758146102af578063c91d956c146102cd578063d42afb56146102e9578063f2fde38b146103055761010b565b8063715018a61461021f5780638da5cb5b14610229578063ac9be7db14610247578063ad7f0da6146102635761010b565b80634585e33b116100de5780634585e33b1461019857806359659e90146101b457806362ba61fb146101d25780636e04ff0d146101ee5761010b565b806302400b75146101105780631c4695f4146101405780632e1a7d4d1461015e57806336f6c6331461017a575b600080fd5b61012a60048036038101906101259190610e41565b610321565b60405161013791906110bc565b60405180910390f35b610148610345565b6040516101559190611061565b60405180910390f35b61017860048036038101906101739190610e41565b61036b565b005b610182610426565b60405161018f91906110bc565b60405180910390f35b6101b260048036038101906101ad9190610d92565b61042c565b005b6101bc61054c565b6040516101c99190611046565b60405180910390f35b6101ec60048036038101906101e79190610e41565b610572565b005b61020860048036038101906102039190610d92565b610647565b604051610216929190611016565b60405180910390f35b61022761073f565b005b610231610753565b60405161023e9190610f94565b60405180910390f35b610261600480360381019061025c9190610e41565b61077c565b005b61027d60048036038101906102789190610e41565b61078e565b60405161028a91906110bc565b60405180910390f35b6102ad60048036038101906102a89190610e41565b61085e565b005b6102b7610892565b6040516102c491906110bc565b60405180910390f35b6102e760048036038101906102e29190610e41565b610898565b005b61030360048036038101906102fe9190610dd7565b6108aa565b005b61031f600480360381019061031a9190610d40565b6108f6565b005b6005818154811061033157600080fd5b906000526020600020016000915090505481565b600360009054906101000a900473ffffffffffffffffffffffffffffffffffffffff1681565b61037361097a565b600360009054906101000a900473ffffffffffffffffffffffffffffffffffffffff1673ffffffffffffffffffffffffffffffffffffffff1663a9059cbb33836040518363ffffffff1660e01b81526004016103d0929190610faf565b602060405180830381600087803b1580156103ea57600080fd5b505af11580156103fe573d6000803e3d6000fd5b505050506040513d601f19601f820116820180604052508101906104229190610d69565b5050565b60025481565b6000828281019061043d9190610e41565b905060015461044b8261078e565b101561054757600360009054906101000a900473ffffffffffffffffffffffffffffffffffffffff1673ffffffffffffffffffffffffffffffffffffffff16634000aea0600460009054906101000a900473ffffffffffffffffffffffffffffffffffffffff16600254846040516020016104c691906110bc565b6040516020818303038152906040526040518463ffffffff1660e01b81526004016104f393929190610fd8565b602060405180830381600087803b15801561050d57600080fd5b505af1158015610521573d6000803e3d6000fd5b505050506040513d601f19601f820116820180604052508101906105459190610d69565b505b505050565b600460009054906101000a900473ffffffffffffffffffffffffffffffffffffffff1681565b600360009054906101000a900473ffffffffffffffffffffffffffffffffffffffff1673ffffffffffffffffffffffffffffffffffffffff1663095ea7b3600460009054906101000a900473ffffffffffffffffffffffffffffffffffffffff16836040518363ffffffff1660e01b81526004016105f1929190610faf565b602060405180830381600087803b15801561060b57600080fd5b505af115801561061f573d6000803e3d6000fd5b505050506040513d601f19601f820116820180604052508101906106439190610d69565b5050565b600060606000915060005b600580549050811015610737576001546106af6005838154811061069f577f4e487b7100000000000000000000000000000000000000000000000000000000600052603260045260246000fd5b906000526020600020015461078e565b10156107245760019250600581815481106106f3577f4e487b7100000000000000000000000000000000000000000000000000000000600052603260045260246000fd5b906000526020600020015460405160200161070e91906110bc565b6040516020818303038152906040529150610737565b808061072f90611276565b915050610652565b509250929050565b61074761097a565b61075160006109f8565b565b60008060009054906101000a900473ffffffffffffffffffffffffffffffffffffffff16905090565b61078461097a565b8060028190555050565b600080600460009054906101000a900473ffffffffffffffffffffffffffffffffffffffff1673ffffffffffffffffffffffffffffffffffffffff1663c7c3a19a846040518263ffffffff1660e01b81526004016107ec91906110bc565b60006040518083038186803b15801561080457600080fd5b505afa158015610818573d6000803e3d6000fd5b505050506040513d6000823e3d601f19601f820116820180604052508101906108419190610e00565b905080606001516bffffffffffffffffffffffff16915050919050565b61086661097a565b600581908060018154018082558091505060019003906000526020600020016000909190919091505550565b60015481565b6108a061097a565b8060018190555050565b6108b261097a565b80600460006101000a81548173ffffffffffffffffffffffffffffffffffffffff021916908373ffffffffffffffffffffffffffffffffffffffff16021790555050565b6108fe61097a565b600073ffffffffffffffffffffffffffffffffffffffff168173ffffffffffffffffffffffffffffffffffffffff16141561096e576040517f08c379a00000000000000000000000000000000000000000000000000000000081526004016109659061107c565b60405180910390fd5b610977816109f8565b50565b610982610abc565b73ffffffffffffffffffffffffffffffffffffffff166109a0610753565b73ffffffffffffffffffffffffffffffffffffffff16146109f6576040517f08c379a00000000000000000000000000000000000000000000000000000000081526004016109ed9061109c565b60405180910390fd5b565b60008060009054906101000a900473ffffffffffffffffffffffffffffffffffffffff169050816000806101000a81548173ffffffffffffffffffffffffffffffffffffffff021916908373ffffffffffffffffffffffffffffffffffffffff1602179055508173ffffffffffffffffffffffffffffffffffffffff168173ffffffffffffffffffffffffffffffffffffffff167f8be0079c531659141344cd1fd0a4f28419497f9722a3daafe3b4186f6b6457e060405160405180910390a35050565b600033905090565b6000610ad7610ad284611108565b6110d7565b905082815260208101848484011115610aef57600080fd5b610afa848285611243565b509392505050565b600081359050610b118161132e565b92915050565b600081519050610b268161132e565b92915050565b600081519050610b3b81611345565b92915050565b60008083601f840112610b5357600080fd5b8235905067ffffffffffffffff811115610b6c57600080fd5b602083019150836001820283011115610b8457600080fd5b9250929050565b600082601f830112610b9c57600080fd5b8151610bac848260208601610ac4565b91505092915050565b600081359050610bc48161135c565b92915050565b60006101408284031215610bdd57600080fd5b610be86101406110d7565b90506000610bf884828501610b17565b6000830152506020610c0c84828501610d01565b602083015250604082015167ffffffffffffffff811115610c2c57600080fd5b610c3884828501610b8b565b6040830152506060610c4c84828501610d2b565b6060830152506080610c6084828501610b17565b60808301525060a0610c7484828501610d16565b60a08301525060c0610c8884828501610d01565b60c08301525060e0610c9c84828501610d2b565b60e083015250610100610cb184828501610b2c565b6101008301525061012082015167ffffffffffffffff811115610cd357600080fd5b610cdf84828501610b8b565b6101208301525092915050565b600081359050610cfb81611373565b92915050565b600081519050610d108161138a565b92915050565b600081519050610d25816113a1565b92915050565b600081519050610d3a816113b8565b92915050565b600060208284031215610d5257600080fd5b6000610d6084828501610b02565b91505092915050565b600060208284031215610d7b57600080fd5b6000610d8984828501610b2c565b91505092915050565b60008060208385031215610da557600080fd5b600083013567ffffffffffffffff811115610dbf57600080fd5b610dcb85828601610b41565b92509250509250929050565b600060208284031215610de957600080fd5b6000610df784828501610bb5565b91505092915050565b600060208284031215610e1257600080fd5b600082015167ffffffffffffffff811115610e2c57600080fd5b610e3884828501610bca565b91505092915050565b600060208284031215610e5357600080fd5b6000610e6184828501610cec565b91505092915050565b610e7381611165565b82525050565b610e8281611177565b82525050565b6000610e9382611138565b610e9d8185611143565b9350610ead818560208601611243565b610eb68161131d565b840191505092915050565b610eca816111fb565b82525050565b610ed98161121f565b82525050565b6000610eec602683611154565b91507f4f776e61626c653a206e6577206f776e657220697320746865207a65726f206160008301527f64647265737300000000000000000000000000000000000000000000000000006020830152604082019050919050565b6000610f52602083611154565b91507f4f776e61626c653a2063616c6c6572206973206e6f7420746865206f776e65726000830152602082019050919050565b610f8e816111b5565b82525050565b6000602082019050610fa96000830184610e6a565b92915050565b6000604082019050610fc46000830185610e6a565b610fd16020830184610f85565b9392505050565b6000606082019050610fed6000830186610e6a565b610ffa6020830185610f85565b818103604083015261100c8184610e88565b9050949350505050565b600060408201905061102b6000830185610e79565b818103602083015261103d8184610e88565b90509392505050565b600060208201905061105b6000830184610ec1565b92915050565b60006020820190506110766000830184610ed0565b92915050565b6000602082019050818103600083015261109581610edf565b9050919050565b600060208201905081810360008301526110b581610f45565b9050919050565b60006020820190506110d16000830184610f85565b92915050565b6000604051905081810181811067ffffffffffffffff821117156110fe576110fd6112ee565b5b8060405250919050565b600067ffffffffffffffff821115611123576111226112ee565b5b601f19601f8301169050602081019050919050565b600081519050919050565b600082825260208201905092915050565b600082825260208201905092915050565b600061117082611195565b9050919050565b60008115159050919050565b600061118e82611165565b9050919050565b600073ffffffffffffffffffffffffffffffffffffffff82169050919050565b6000819050919050565b600063ffffffff82169050919050565b600067ffffffffffffffff82169050919050565b60006bffffffffffffffffffffffff82169050919050565b60006112068261120d565b9050919050565b600061121882611195565b9050919050565b600061122a82611231565b9050919050565b600061123c82611195565b9050919050565b60005b83811015611261578082015181840152602081019050611246565b83811115611270576000848401525b50505050565b6000611281826111b5565b91507fffffffffffffffffffffffffffffffffffffffffffffffffffffffffffffffff8214156112b4576112b36112bf565b5b600182019050919050565b7f4e487b7100000000000000000000000000000000000000000000000000000000600052601160045260246000fd5b7f4e487b7100000000000000000000000000000000000000000000000000000000600052604160045260246000fd5b6000601f19601f8301169050919050565b61133781611165565b811461134257600080fd5b50565b61134e81611177565b811461135957600080fd5b50565b61136581611183565b811461137057600080fd5b50565b61137c816111b5565b811461138757600080fd5b50565b611393816111bf565b811461139e57600080fd5b50565b6113aa816111cf565b81146113b557600080fd5b50565b6113c1816111e3565b81146113cc57600080fd5b5056fea2646970667358221220a93e8506a228969d4dbf3d9d4c4a1a94df51bd514fe99e53a42cbe3f3012d2bd64736f6c63430008000033",
  "devdoc": {
    "kind": "dev",
    "methods": {
      "owner()": {
        "details": "Returns the address of the current owner."
      },
      "performUpkeep(bytes)": {
        "details": "The input to this method should not be trusted, and the caller of the method should not even be restricted to any single registry. Anyone should be able call it, and the input should be validated, there is no guarantee that the data passed in is the performData returned from checkUpkeep. This could happen due to malicious keepers, racing keepers, or simply a state change while the performUpkeep transaction is waiting for confirmation. Always validate the data passed in.",
        "params": {
          "performData": "is the data which was passed back from the checkData simulation. If it is encoded, it can easily be decoded into other types by calling `abi.decode`. This data should not be trusted, and should be validated against the contract's current state."
        }
      },
      "renounceOwnership()": {
        "details": "Leaves the contract without owner. It will not be possible to call `onlyOwner` functions. Can only be called by the current owner. NOTE: Renouncing ownership will leave the contract without an owner, thereby disabling any functionality that is only available to the owner."
      },
      "transferOwnership(address)": {
        "details": "Transfers ownership of the contract to a new account (`newOwner`). Can only be called by the current owner."
      }
    },
    "version": 1
  },
  "userdoc": {
    "kind": "user",
    "methods": {
      "performUpkeep(bytes)": {
        "notice": "method that is actually executed by the keepers, via the registry. The data returned by the checkUpkeep simulation will be passed into this method to actually be executed."
      }
    },
    "version": 1
  },
  "storageLayout": {
    "storage": [
      {
        "astId": 26,
        "contract": "contracts/UpkeepBalances.sol:UpkeepBalances",
        "label": "_owner",
        "offset": 0,
        "slot": "0",
        "type": "t_address"
      },
      {
        "astId": 540,
        "contract": "contracts/UpkeepBalances.sol:UpkeepBalances",
        "label": "minBalance",
        "offset": 0,
        "slot": "1",
        "type": "t_uint256"
      },
      {
        "astId": 543,
        "contract": "contracts/UpkeepBalances.sol:UpkeepBalances",
        "label": "provideAmount",
        "offset": 0,
        "slot": "2",
        "type": "t_uint256"
      },
      {
        "astId": 546,
        "contract": "contracts/UpkeepBalances.sol:UpkeepBalances",
        "label": "link",
        "offset": 0,
        "slot": "3",
        "type": "t_contract(ILinkTokenInterface)408"
      },
      {
        "astId": 549,
        "contract": "contracts/UpkeepBalances.sol:UpkeepBalances",
        "label": "beacon",
        "offset": 0,
        "slot": "4",
        "type": "t_contract(IClonableBeaconProxy)313"
      },
      {
        "astId": 552,
        "contract": "contracts/UpkeepBalances.sol:UpkeepBalances",
        "label": "upkeepIds",
        "offset": 0,
        "slot": "5",
        "type": "t_array(t_uint256)dyn_storage"
      }
    ],
    "types": {
      "t_address": {
        "encoding": "inplace",
        "label": "address",
        "numberOfBytes": "20"
      },
      "t_array(t_uint256)dyn_storage": {
        "base": "t_uint256",
        "encoding": "dynamic_array",
        "label": "uint256[]",
        "numberOfBytes": "32"
      },
      "t_contract(IClonableBeaconProxy)313": {
        "encoding": "inplace",
        "label": "contract IClonableBeaconProxy",
        "numberOfBytes": "20"
      },
      "t_contract(ILinkTokenInterface)408": {
        "encoding": "inplace",
        "label": "contract ILinkTokenInterface",
        "numberOfBytes": "20"
      },
      "t_uint256": {
        "encoding": "inplace",
        "label": "uint256",
        "numberOfBytes": "32"
      }
    }
  }
}